{
  "contractName": "MarketAdmin",
  "abi": [
    {
      "constant": true,
      "inputs": [
        {
          "name": "",
          "type": "uint256"
        }
      ],
      "name": "admins",
      "outputs": [
        {
          "name": "",
          "type": "address"
        }
      ],
      "payable": false,
      "stateMutability": "view",
      "type": "function"
    },
    {
      "constant": true,
      "inputs": [],
      "name": "marketOwner",
      "outputs": [
        {
          "name": "",
          "type": "address"
        }
      ],
      "payable": false,
      "stateMutability": "view",
      "type": "function"
    },
    {
      "constant": true,
      "inputs": [
        {
          "name": "",
          "type": "address"
        }
      ],
      "name": "approvedAdmins",
      "outputs": [
        {
          "name": "",
          "type": "bool"
        }
      ],
      "payable": false,
      "stateMutability": "view",
      "type": "function"
    },
    {
      "constant": true,
      "inputs": [
        {
          "name": "",
          "type": "uint256"
        }
      ],
      "name": "storeowners",
      "outputs": [
        {
          "name": "",
          "type": "address"
        }
      ],
      "payable": false,
      "stateMutability": "view",
      "type": "function"
    },
    {
      "constant": true,
      "inputs": [
        {
          "name": "",
          "type": "address"
        }
      ],
      "name": "approvedStoreOwners",
      "outputs": [
        {
          "name": "",
          "type": "bool"
        }
      ],
      "payable": false,
      "stateMutability": "view",
      "type": "function"
    },
    {
      "inputs": [],
      "payable": false,
      "stateMutability": "nonpayable",
      "type": "constructor"
    },
    {
      "anonymous": false,
      "inputs": [
        {
          "indexed": false,
          "name": "_admin",
          "type": "address"
        }
      ],
      "name": "adminAdded",
      "type": "event"
    },
    {
      "anonymous": false,
      "inputs": [
        {
          "indexed": false,
          "name": "_admin",
          "type": "address"
        }
      ],
      "name": "adminRemoved",
      "type": "event"
    },
    {
      "anonymous": false,
      "inputs": [
        {
          "indexed": false,
          "name": "_storeowner",
          "type": "address"
        }
      ],
      "name": "storeownerAdded",
      "type": "event"
    },
    {
      "constant": false,
      "inputs": [
        {
          "name": "admin",
          "type": "address"
        }
      ],
      "name": "addAdmin",
      "outputs": [],
      "payable": false,
      "stateMutability": "nonpayable",
      "type": "function"
    },
    {
      "constant": false,
      "inputs": [
        {
          "name": "storeowner",
          "type": "address"
        }
      ],
      "name": "addStoreOwner",
      "outputs": [],
      "payable": false,
      "stateMutability": "nonpayable",
      "type": "function"
    },
    {
      "constant": true,
      "inputs": [
        {
          "name": "checkaddress",
          "type": "address"
        }
      ],
      "name": "isAdmin",
      "outputs": [
        {
          "name": "",
          "type": "bool"
        }
      ],
      "payable": false,
      "stateMutability": "view",
      "type": "function"
    },
    {
      "constant": true,
      "inputs": [
        {
          "name": "checkaddress",
          "type": "address"
        }
      ],
      "name": "isStoreOwner",
      "outputs": [
        {
          "name": "",
          "type": "bool"
        }
      ],
      "payable": false,
      "stateMutability": "view",
      "type": "function"
    },
    {
      "constant": true,
      "inputs": [],
      "name": "getAdmins",
      "outputs": [
        {
          "name": "",
          "type": "address[]"
        }
      ],
      "payable": false,
      "stateMutability": "view",
      "type": "function"
    },
    {
      "constant": true,
      "inputs": [],
      "name": "getStoreOwners",
      "outputs": [
        {
          "name": "",
          "type": "address[]"
        }
      ],
      "payable": false,
      "stateMutability": "view",
      "type": "function"
    }
  ],
  "bytecode": "0x608060405234801561001057600080fd5b50336000806101000a81548173ffffffffffffffffffffffffffffffffffffffff021916908373ffffffffffffffffffffffffffffffffffffffff1602179055506001600360003373ffffffffffffffffffffffffffffffffffffffff1673ffffffffffffffffffffffffffffffffffffffff16815260200190815260200160002060006101000a81548160ff02191690831515021790555060013390806001815401808255809150509060018203906000526020600020016000909192909190916101000a81548173ffffffffffffffffffffffffffffffffffffffff021916908373ffffffffffffffffffffffffffffffffffffffff16021790555050610b208061011e6000396000f3006080604052600436106100af576000357c0100000000000000000000000000000000000000000000000000000000900463ffffffff16806314bfd6d0146100b457806324d7806c1461012157806331ae450b1461017c57806347d90b5c146101e85780635effd33c1461023f578063704802751461029a57806371ba3327146102dd5780638a6105651461033857806391f4245a146103a55780639adeb5f114610411578063f1f304a914610454575b600080fd5b3480156100c057600080fd5b506100df600480360381019080803590602001909291905050506104af565b604051808273ffffffffffffffffffffffffffffffffffffffff1673ffffffffffffffffffffffffffffffffffffffff16815260200191505060405180910390f35b34801561012d57600080fd5b50610162600480360381019080803573ffffffffffffffffffffffffffffffffffffffff1690602001909291905050506104ed565b604051808215151515815260200191505060405180910390f35b34801561018857600080fd5b50610191610543565b6040518080602001828103825283818151815260200191508051906020019060200280838360005b838110156101d45780820151818401526020810190506101b9565b505050509050019250505060405180910390f35b3480156101f457600080fd5b506101fd6105d1565b604051808273ffffffffffffffffffffffffffffffffffffffff1673ffffffffffffffffffffffffffffffffffffffff16815260200191505060405180910390f35b34801561024b57600080fd5b50610280600480360381019080803573ffffffffffffffffffffffffffffffffffffffff1690602001909291905050506105f6565b604051808215151515815260200191505060405180910390f35b3480156102a657600080fd5b506102db600480360381019080803573ffffffffffffffffffffffffffffffffffffffff16906020019092919050505061064c565b005b3480156102e957600080fd5b5061031e600480360381019080803573ffffffffffffffffffffffffffffffffffffffff16906020019092919050505061080b565b604051808215151515815260200191505060405180910390f35b34801561034457600080fd5b506103636004803603810190808035906020019092919050505061082b565b604051808273ffffffffffffffffffffffffffffffffffffffff1673ffffffffffffffffffffffffffffffffffffffff16815260200191505060405180910390f35b3480156103b157600080fd5b506103ba610869565b6040518080602001828103825283818151815260200191508051906020019060200280838360005b838110156103fd5780820151818401526020810190506103e2565b505050509050019250505060405180910390f35b34801561041d57600080fd5b50610452600480360381019080803573ffffffffffffffffffffffffffffffffffffffff1690602001909291905050506108f7565b005b34801561046057600080fd5b50610495600480360381019080803573ffffffffffffffffffffffffffffffffffffffff169060200190929190505050610ad4565b604051808215151515815260200191505060405180910390f35b6001818154811015156104be57fe5b906000526020600020016000915054906101000a900473ffffffffffffffffffffffffffffffffffffffff1681565b6000600360008373ffffffffffffffffffffffffffffffffffffffff1673ffffffffffffffffffffffffffffffffffffffff16815260200190815260200160002060009054906101000a900460ff169050919050565b606060018054806020026020016040519081016040528092919081815260200182805480156105c757602002820191906000526020600020905b8160009054906101000a900473ffffffffffffffffffffffffffffffffffffffff1673ffffffffffffffffffffffffffffffffffffffff168152602001906001019080831161057d575b5050505050905090565b6000809054906101000a900473ffffffffffffffffffffffffffffffffffffffff1681565b6000600460008373ffffffffffffffffffffffffffffffffffffffff1673ffffffffffffffffffffffffffffffffffffffff16815260200190815260200160002060009054906101000a900460ff169050919050565b338073ffffffffffffffffffffffffffffffffffffffff163373ffffffffffffffffffffffffffffffffffffffff1614151561068757600080fd5b60001515600360008473ffffffffffffffffffffffffffffffffffffffff1673ffffffffffffffffffffffffffffffffffffffff16815260200190815260200160002060009054906101000a900460ff1615151415156106e657600080fd5b6001600360008473ffffffffffffffffffffffffffffffffffffffff1673ffffffffffffffffffffffffffffffffffffffff16815260200190815260200160002060006101000a81548160ff02191690831515021790555060018290806001815401808255809150509060018203906000526020600020016000909192909190916101000a81548173ffffffffffffffffffffffffffffffffffffffff021916908373ffffffffffffffffffffffffffffffffffffffff160217905550507fefcbb6030dbeda3448a657cc462d3fde6f3b78e2710bd7b2d9e2ab358a12e17082604051808273ffffffffffffffffffffffffffffffffffffffff1673ffffffffffffffffffffffffffffffffffffffff16815260200191505060405180910390a15050565b60036020528060005260406000206000915054906101000a900460ff1681565b60028181548110151561083a57fe5b906000526020600020016000915054906101000a900473ffffffffffffffffffffffffffffffffffffffff1681565b606060028054806020026020016040519081016040528092919081815260200182805480156108ed57602002820191906000526020600020905b8160009054906101000a900473ffffffffffffffffffffffffffffffffffffffff1673ffffffffffffffffffffffffffffffffffffffff16815260200190600101908083116108a3575b5050505050905090565b33600360008273ffffffffffffffffffffffffffffffffffffffff1673ffffffffffffffffffffffffffffffffffffffff16815260200190815260200160002060009054906101000a900460ff16151561095057600080fd5b60001515600460008473ffffffffffffffffffffffffffffffffffffffff1673ffffffffffffffffffffffffffffffffffffffff16815260200190815260200160002060009054906101000a900460ff1615151415156109af57600080fd5b6001600460008473ffffffffffffffffffffffffffffffffffffffff1673ffffffffffffffffffffffffffffffffffffffff16815260200190815260200160002060006101000a81548160ff02191690831515021790555060028290806001815401808255809150509060018203906000526020600020016000909192909190916101000a81548173ffffffffffffffffffffffffffffffffffffffff021916908373ffffffffffffffffffffffffffffffffffffffff160217905550507f767d71230d5cd76aaa996d05fe8523b32db03111807e02395721f76e7d4b71d482604051808273ffffffffffffffffffffffffffffffffffffffff1673ffffffffffffffffffffffffffffffffffffffff16815260200191505060405180910390a15050565b60046020528060005260406000206000915054906101000a900460ff16815600a165627a7a7230582066dca4c8c58c47c9cc023020ec0c163f96f19f09e1930febaef2ceefd1b5e3610029",
  "source": "pragma solidity ^0.4.24;\n\ncontract MarketAdmin {\n  /* owner of the marketplace */\n  address public marketOwner;\n  address[] public admins;\n  address[] public storeowners;\n  mapping (address => bool) public approvedAdmins;\n  mapping (address => bool) public approvedStoreOwners;\n\n  \n  /* Create a modifer that checks if the msg.sender is the owner of the contract */\n  modifier onlyOwner (address _address) { require (msg.sender == _address); _;} \n  \n  /* Create a modifer that checks if the msg.sender is an admin */\n  modifier onlyAdmin (address _address) { require (approvedAdmins[_address]); _;}\n  \n  event adminAdded(address _admin);\n  event adminRemoved(address _admin);\n  event storeownerAdded(address _storeowner);\n  \n  constructor() public{\n    marketOwner = msg.sender;\n    approvedAdmins[msg.sender] = true;\n    admins.push(msg.sender);\n  }\n  \n  /* Contract owner can add other admins for the marketplace*/\n  function addAdmin(address admin) onlyOwner(msg.sender) public {\n    require(approvedAdmins[admin] == false);\n    approvedAdmins[admin] = true; \n    admins.push(admin);\n    emit adminAdded(admin);\n  }\n  \n  /* Contract owner can remove other admins for the marketplace\n  function removeAdmin(address admin) onlyOwner(msg.sender) public {\n    require(approvedAdmins[admin] == true);\n    require(admin != marketOwner); //can't remove the contract owner\n    approvedAdmins[admin] = false; \n    emit adminRemoved(admin);\n  }*/\n  \n  function addStoreOwner(address storeowner) onlyAdmin(msg.sender) public {\n    require(approvedStoreOwners[storeowner] == false);\n    approvedStoreOwners[storeowner] = true; \n    storeowners.push(storeowner);\n    emit storeownerAdded(storeowner);\n  }\n  \n  function isAdmin(address checkaddress) public view returns(bool) {\n    return(approvedAdmins[checkaddress]);\n  }\n\n  function isStoreOwner(address checkaddress) public view returns(bool) {\n    return(approvedStoreOwners[checkaddress]);\n  }\n  \n  function getAdmins() public view returns(address[]) {\n    return(admins);\n  }\n  \n  function getStoreOwners() public view returns(address[]) {\n    return(storeowners);\n  }\n  \n}\n",
  "sourcePath": "/home/avani/final-project-akp18/contracts/MarketAdmin.sol",
  "compiler": {
    "name": "solc",
    "version": "0.4.24+commit.e67f0147.Emscripten.clang"
  },
  "schemaVersion": "2.0.1",
  "updatedAt": "2018-12-19T19:13:23.535Z"
}