{
  "contractName": "HelperLibrary",
  "abi": [
    {
      "constant": true,
      "inputs": [
        {
          "name": "inputstr",
          "type": "string"
        }
      ],
      "name": "IsEmptyString",
      "outputs": [
        {
          "name": "",
          "type": "bool"
        }
      ],
      "payable": false,
      "stateMutability": "pure",
      "type": "function"
    }
  ],
  "bytecode": "0x61011c610030600b82828239805160001a6073146000811461002057610022565bfe5b5030600052607381538281f30073000000000000000000000000000000000000000030146080604052600436106056576000357c0100000000000000000000000000000000000000000000000000000000900463ffffffff168063ed1a54db14605b575b600080fd5b60b3600480360381019080803590602001908201803590602001908080601f016020809104026020016040519081016040528093929190818152602001838380828437820191505050505050919291929050505060cd565b604051808215151515815260200191505060405180910390f35b6000606082905060008151141560e5576001915060ea565b600091505b509190505600a165627a7a72305820c4ed90f7022bbb91c98ef78d1759907c621df13cf24ac76c5177c61cf6a8ecc30029",
  "source": "pragma solidity ^0.4.24;\n\nlibrary HelperLibrary {\n    /** \n     * returns true if input parameter is empty, returns false if input parameter is not empty \n     */\n    function IsEmptyString(string inputstr) public pure returns(bool)\n    {\n        // Uses memory to check string\n        bytes memory tmpstr = bytes(inputstr); \n        if (tmpstr.length == 0) {\n            return true;\n        }\n        else {\n            return false;\n        }\n    }\n}\n",
  "sourcePath": "/home/avani/final-project-akp18/contracts/HelperLibrary.sol",
  "compiler": {
    "name": "solc",
    "version": "0.4.24+commit.e67f0147.Emscripten.clang"
  },
  "schemaVersion": "2.0.1",
  "updatedAt": "2018-12-30T03:47:55.653Z"
}