{
  "contractName": "MarketAdmin",
  "abi": [
    {
      "constant": true,
      "inputs": [
        {
          "name": "",
          "type": "uint256"
        }
      ],
      "name": "admins",
      "outputs": [
        {
          "name": "",
          "type": "address"
        }
      ],
      "payable": false,
      "stateMutability": "view",
      "type": "function"
    },
    {
      "constant": true,
      "inputs": [
        {
          "name": "",
          "type": "address"
        }
      ],
      "name": "approvedAdmins",
      "outputs": [
        {
          "name": "",
          "type": "bool"
        }
      ],
      "payable": false,
      "stateMutability": "view",
      "type": "function"
    },
    {
      "constant": true,
      "inputs": [
        {
          "name": "",
          "type": "uint256"
        }
      ],
      "name": "storeowners",
      "outputs": [
        {
          "name": "",
          "type": "address"
        }
      ],
      "payable": false,
      "stateMutability": "view",
      "type": "function"
    },
    {
      "constant": false,
      "inputs": [],
      "name": "changeMarketState",
      "outputs": [],
      "payable": false,
      "stateMutability": "nonpayable",
      "type": "function"
    },
    {
      "constant": true,
      "inputs": [],
      "name": "owner",
      "outputs": [
        {
          "name": "",
          "type": "address"
        }
      ],
      "payable": false,
      "stateMutability": "view",
      "type": "function"
    },
    {
      "constant": true,
      "inputs": [],
      "name": "getMarketState",
      "outputs": [
        {
          "name": "",
          "type": "bool"
        }
      ],
      "payable": false,
      "stateMutability": "view",
      "type": "function"
    },
    {
      "constant": true,
      "inputs": [
        {
          "name": "",
          "type": "address"
        }
      ],
      "name": "approvedStoreOwners",
      "outputs": [
        {
          "name": "",
          "type": "bool"
        }
      ],
      "payable": false,
      "stateMutability": "view",
      "type": "function"
    },
    {
      "constant": false,
      "inputs": [
        {
          "name": "newOwner",
          "type": "address"
        }
      ],
      "name": "transferOwnership",
      "outputs": [],
      "payable": false,
      "stateMutability": "nonpayable",
      "type": "function"
    },
    {
      "anonymous": false,
      "inputs": [
        {
          "indexed": false,
          "name": "_admin",
          "type": "address"
        }
      ],
      "name": "adminAdded",
      "type": "event"
    },
    {
      "anonymous": false,
      "inputs": [
        {
          "indexed": false,
          "name": "_storeowner",
          "type": "address"
        }
      ],
      "name": "storeownerAdded",
      "type": "event"
    },
    {
      "anonymous": false,
      "inputs": [],
      "name": "marketStopped",
      "type": "event"
    },
    {
      "constant": true,
      "inputs": [],
      "name": "getUserType",
      "outputs": [
        {
          "name": "",
          "type": "uint8"
        }
      ],
      "payable": false,
      "stateMutability": "view",
      "type": "function"
    },
    {
      "constant": false,
      "inputs": [
        {
          "name": "_admin",
          "type": "address"
        }
      ],
      "name": "addAdmin",
      "outputs": [],
      "payable": false,
      "stateMutability": "nonpayable",
      "type": "function"
    },
    {
      "constant": false,
      "inputs": [
        {
          "name": "_storeowner",
          "type": "address"
        }
      ],
      "name": "addStoreOwner",
      "outputs": [],
      "payable": false,
      "stateMutability": "nonpayable",
      "type": "function"
    },
    {
      "constant": true,
      "inputs": [
        {
          "name": "_checkaddress",
          "type": "address"
        }
      ],
      "name": "isAdmin",
      "outputs": [
        {
          "name": "",
          "type": "bool"
        }
      ],
      "payable": false,
      "stateMutability": "view",
      "type": "function"
    },
    {
      "constant": true,
      "inputs": [
        {
          "name": "_checkaddress",
          "type": "address"
        }
      ],
      "name": "isStoreOwner",
      "outputs": [
        {
          "name": "",
          "type": "bool"
        }
      ],
      "payable": false,
      "stateMutability": "view",
      "type": "function"
    },
    {
      "constant": true,
      "inputs": [],
      "name": "getAdmins",
      "outputs": [
        {
          "name": "",
          "type": "address[]"
        }
      ],
      "payable": false,
      "stateMutability": "view",
      "type": "function"
    },
    {
      "constant": true,
      "inputs": [],
      "name": "getStoreOwners",
      "outputs": [
        {
          "name": "",
          "type": "address[]"
        }
      ],
      "payable": false,
      "stateMutability": "view",
      "type": "function"
    }
  ],
  "bytecode": "0x6080604052336000806101000a81548173ffffffffffffffffffffffffffffffffffffffff021916908373ffffffffffffffffffffffffffffffffffffffff16021790555060008060146101000a81548160ff02191690831515021790555061118b8061006d6000396000f3006080604052600436106100db576000357c0100000000000000000000000000000000000000000000000000000000900463ffffffff16806314bfd6d0146100e057806324d7806c1461014d57806331ae450b146101a857806341990077146102145780635effd33c1461024d57806370480275146102a857806371ba3327146102eb5780638a610565146103465780638b89ba3e146103b35780638da5cb5b146103ca57806391f4245a146104215780639adeb5f11461048d578063d8165743146104d0578063f1f304a9146104ff578063f2fde38b1461055a575b600080fd5b3480156100ec57600080fd5b5061010b6004803603810190808035906020019092919050505061059d565b604051808273ffffffffffffffffffffffffffffffffffffffff1673ffffffffffffffffffffffffffffffffffffffff16815260200191505060405180910390f35b34801561015957600080fd5b5061018e600480360381019080803573ffffffffffffffffffffffffffffffffffffffff1690602001909291905050506105db565b604051808215151515815260200191505060405180910390f35b3480156101b457600080fd5b506101bd610631565b6040518080602001828103825283818151815260200191508051906020019060200280838360005b838110156102005780820151818401526020810190506101e5565b505050509050019250505060405180910390f35b34801561022057600080fd5b506102296106bf565b6040518082600381111561023957fe5b60ff16815260200191505060405180910390f35b34801561025957600080fd5b5061028e600480360381019080803573ffffffffffffffffffffffffffffffffffffffff1690602001909291905050506107dd565b604051808215151515815260200191505060405180910390f35b3480156102b457600080fd5b506102e9600480360381019080803573ffffffffffffffffffffffffffffffffffffffff169060200190929190505050610833565b005b3480156102f757600080fd5b5061032c600480360381019080803573ffffffffffffffffffffffffffffffffffffffff169060200190929190505050610afa565b604051808215151515815260200191505060405180910390f35b34801561035257600080fd5b5061037160048036038101908080359060200190929190505050610b1a565b604051808273ffffffffffffffffffffffffffffffffffffffff1673ffffffffffffffffffffffffffffffffffffffff16815260200191505060405180910390f35b3480156103bf57600080fd5b506103c8610b58565b005b3480156103d657600080fd5b506103df610c74565b604051808273ffffffffffffffffffffffffffffffffffffffff1673ffffffffffffffffffffffffffffffffffffffff16815260200191505060405180910390f35b34801561042d57600080fd5b50610436610c99565b6040518080602001828103825283818151815260200191508051906020019060200280838360005b8381101561047957808201518184015260208101905061045e565b505050509050019250505060405180910390f35b34801561049957600080fd5b506104ce600480360381019080803573ffffffffffffffffffffffffffffffffffffffff169060200190929190505050610d27565b005b3480156104dc57600080fd5b506104e5610feb565b604051808215151515815260200191505060405180910390f35b34801561050b57600080fd5b50610540600480360381019080803573ffffffffffffffffffffffffffffffffffffffff169060200190929190505050611001565b604051808215151515815260200191505060405180910390f35b34801561056657600080fd5b5061059b600480360381019080803573ffffffffffffffffffffffffffffffffffffffff169060200190929190505050611021565b005b6001818154811015156105ac57fe5b906000526020600020016000915054906101000a900473ffffffffffffffffffffffffffffffffffffffff1681565b6000600360008373ffffffffffffffffffffffffffffffffffffffff1673ffffffffffffffffffffffffffffffffffffffff16815260200190815260200160002060009054906101000a900460ff169050919050565b606060018054806020026020016040519081016040528092919081815260200182805480156106b557602002820191906000526020600020905b8160009054906101000a900473ffffffffffffffffffffffffffffffffffffffff1673ffffffffffffffffffffffffffffffffffffffff168152602001906001019080831161066b575b5050505050905090565b60008060009054906101000a900473ffffffffffffffffffffffffffffffffffffffff1673ffffffffffffffffffffffffffffffffffffffff163373ffffffffffffffffffffffffffffffffffffffff16141561071f57600090506107da565b600360003373ffffffffffffffffffffffffffffffffffffffff1673ffffffffffffffffffffffffffffffffffffffff16815260200190815260200160002060009054906101000a900460ff161561077a57600190506107da565b600460003373ffffffffffffffffffffffffffffffffffffffff1673ffffffffffffffffffffffffffffffffffffffff16815260200190815260200160002060009054906101000a900460ff16156107d557600290506107da565b600390505b90565b6000600460008373ffffffffffffffffffffffffffffffffffffffff1673ffffffffffffffffffffffffffffffffffffffff16815260200190815260200160002060009054906101000a900460ff169050919050565b6000809054906101000a900473ffffffffffffffffffffffffffffffffffffffff1673ffffffffffffffffffffffffffffffffffffffff163373ffffffffffffffffffffffffffffffffffffffff161415156108f7576040517f08c379a00000000000000000000000000000000000000000000000000000000081526004018080602001828103825260158152602001807f596f7520617265206e6f7420746865206f776e6572000000000000000000000081525060200191505060405180910390fd5b600060149054906101000a900460ff161515610af75760001515600360008373ffffffffffffffffffffffffffffffffffffffff1673ffffffffffffffffffffffffffffffffffffffff16815260200190815260200160002060009054906101000a900460ff1615151415156109d5576040517f08c379a00000000000000000000000000000000000000000000000000000000081526004018080602001828103825260148152602001807f41646d696e20616c72656164792065786973747300000000000000000000000081525060200191505060405180910390fd5b6001600360008373ffffffffffffffffffffffffffffffffffffffff1673ffffffffffffffffffffffffffffffffffffffff16815260200190815260200160002060006101000a81548160ff02191690831515021790555060018190806001815401808255809150509060018203906000526020600020016000909192909190916101000a81548173ffffffffffffffffffffffffffffffffffffffff021916908373ffffffffffffffffffffffffffffffffffffffff160217905550507fefcbb6030dbeda3448a657cc462d3fde6f3b78e2710bd7b2d9e2ab358a12e17081604051808273ffffffffffffffffffffffffffffffffffffffff1673ffffffffffffffffffffffffffffffffffffffff16815260200191505060405180910390a15b50565b60036020528060005260406000206000915054906101000a900460ff1681565b600281815481101515610b2957fe5b906000526020600020016000915054906101000a900473ffffffffffffffffffffffffffffffffffffffff1681565b6000809054906101000a900473ffffffffffffffffffffffffffffffffffffffff1673ffffffffffffffffffffffffffffffffffffffff163373ffffffffffffffffffffffffffffffffffffffff16141515610c1c576040517f08c379a00000000000000000000000000000000000000000000000000000000081526004018080602001828103825260158152602001807f596f7520617265206e6f7420746865206f776e6572000000000000000000000081525060200191505060405180910390fd5b600060149054906101000a900460ff1615600060146101000a81548160ff0219169083151502179055507f394a5882381374bb37075293ea07f1f274f4278ac2ca8f37f16d535b933ca69b60405160405180910390a1565b6000809054906101000a900473ffffffffffffffffffffffffffffffffffffffff1681565b60606002805480602002602001604051908101604052809291908181526020018280548015610d1d57602002820191906000526020600020905b8160009054906101000a900473ffffffffffffffffffffffffffffffffffffffff1673ffffffffffffffffffffffffffffffffffffffff1681526020019060010190808311610cd3575b5050505050905090565b600360003373ffffffffffffffffffffffffffffffffffffffff1673ffffffffffffffffffffffffffffffffffffffff16815260200190815260200160002060009054906101000a900460ff161515610de8576040517f08c379a00000000000000000000000000000000000000000000000000000000081526004018080602001828103825260188152602001807f596f7520617265206e6f74206d61726b65742061646d696e000000000000000081525060200191505060405180910390fd5b600060149054906101000a900460ff161515610fe85760001515600460008373ffffffffffffffffffffffffffffffffffffffff1673ffffffffffffffffffffffffffffffffffffffff16815260200190815260200160002060009054906101000a900460ff161515141515610ec6576040517f08c379a000000000000000000000000000000000000000000000000000000000815260040180806020018281038252601a8152602001807f53746f7265206f776e657220616c72656164792065786973747300000000000081525060200191505060405180910390fd5b6001600460008373ffffffffffffffffffffffffffffffffffffffff1673ffffffffffffffffffffffffffffffffffffffff16815260200190815260200160002060006101000a81548160ff02191690831515021790555060028190806001815401808255809150509060018203906000526020600020016000909192909190916101000a81548173ffffffffffffffffffffffffffffffffffffffff021916908373ffffffffffffffffffffffffffffffffffffffff160217905550507f767d71230d5cd76aaa996d05fe8523b32db03111807e02395721f76e7d4b71d481604051808273ffffffffffffffffffffffffffffffffffffffff1673ffffffffffffffffffffffffffffffffffffffff16815260200191505060405180910390a15b50565b60008060149054906101000a900460ff16905090565b60046020528060005260406000206000915054906101000a900460ff1681565b6000809054906101000a900473ffffffffffffffffffffffffffffffffffffffff1673ffffffffffffffffffffffffffffffffffffffff163373ffffffffffffffffffffffffffffffffffffffff161415156110e5576040517f08c379a00000000000000000000000000000000000000000000000000000000081526004018080602001828103825260158152602001807f596f7520617265206e6f7420746865206f776e6572000000000000000000000081525060200191505060405180910390fd5b600073ffffffffffffffffffffffffffffffffffffffff168173ffffffffffffffffffffffffffffffffffffffff1614151561115c57806000806101000a81548173ffffffffffffffffffffffffffffffffffffffff021916908373ffffffffffffffffffffffffffffffffffffffff1602179055505b505600a165627a7a7230582081d18163f55a2e89dafb34fdaf1a817a214b605743904ac6d75c23136cdefa1a0029",
  "source": "pragma solidity ^0.4.24;\nimport './SafeMath.sol';\n\n/** @title Ownable contract. */\ncontract Ownable {\n    address public owner;\n\n    /** @dev Default constructor stores owner's address   */\n    constructor() public {\n        owner = msg.sender;\n    }\n\n    /** @dev MODIFIER to checks if the msg.sender is the owner of the contract   */\n    modifier onlyOwner {\n        require(msg.sender == owner, \"You are not the owner\");\n        _;\n    }\n\n    /** @dev Transfers ownership to another address\n      * @param newOwner Address of the new owner.\n      */\n    function transferOwnership(address newOwner) public onlyOwner {\n        if (newOwner != address(0)) {\n            owner = newOwner;\n        }\n    }\n}\n\n/** @title Stoppable contract. Inherits from Ownable */\ncontract Stoppable is Ownable\n{\n    /** flag that holds status of market state */\n    bool stopMarket;\n\n    /** @dev Event to notify about market status change   */\n    event marketStopped();\n\n     /** @dev Default constructor sets the default state   */\n    constructor() public {\n        stopMarket = false;\n    }\n    \n    /** @dev CIRCUIT BREAKER PATTERN: Allows owner to stop the marketplace   */\n    function changeMarketState() public onlyOwner {\n        stopMarket = !stopMarket;\n        emit marketStopped();\n    }\n    \n    /** @dev MODIFIER to check if marketplace is active  */\n    modifier checkMarketStatus() {\n        if(!stopMarket) _;\n    }\n\n    /** @dev Returns current state of market   */\n     function getMarketState() public view returns(bool){\n        return stopMarket;\n    }\n\n}\n\n/** @title Market admin contract. Inherits from Ownable and Stoppable */\ncontract MarketAdmin is Stoppable {\n  \n  using SafeMath for uint;\n  \n  /** owner of the marketplace */\n  address[] public admins;\n  address[] public storeowners;\n  mapping (address => bool) public approvedAdmins;\n  mapping (address => bool) public approvedStoreOwners;\n  \n    /**  @dev enum UserType returns \n     * 0 for Market_Owner, \n     * 1 for Admin, \n     * 2 for Store_Owner, \n     * 3 for Shopper\n     */\n    enum UserType { Market_Owner, Admin, Store_Owner, Shopper }\n    \n    /**\n     *  @dev get type of the user accessing the smart contract\n     *  @return UserType \n     *      0 for Market_Owner, \n     *      1 for Admin, \n     *      2 for Store_Owner, \n     *      3 for Shopper\n    */\n    function getUserType() public constant returns(UserType)\n    {\n        if(msg.sender == owner)\n            return UserType.Market_Owner;\n        if(approvedAdmins[msg.sender])\n            return UserType.Admin;\n        if(approvedStoreOwners[msg.sender])\n            return UserType.Store_Owner;\n        else\n            return UserType.Shopper;\n    }\n  \n    /** @dev MODIFIER that checks if the msg.sender is an admin */\n    modifier onlyAdmin () { require (approvedAdmins[msg.sender],\"You are not market admin\"); _;}\n\n    /** @dev MODIFIER that checks if the msg.sender is an admin */\n    modifier onlyStoreOwner () { require (approvedStoreOwners[msg.sender], \"You are not store owner\"); _;}\n   \n    /** @dev Event to notify about new admin   */\n    event adminAdded(address _admin);\n\n   /** @dev Event to notify about new store owner   */\n    event storeownerAdded(address _storeowner);\n  \n    /** @dev Market owner can add other admins for the marketplace*/\n    function addAdmin(address _admin) onlyOwner() checkMarketStatus public {\n        require(approvedAdmins[_admin] == false, \"Admin already exists\");\n        approvedAdmins[_admin] = true; \n        admins.push(_admin);\n        emit adminAdded(_admin);\n    }\n  \n    /** @dev Market admin and market owner can add new store owners \n      * @param _storeowner Address of the new owner.\n      */\n    function addStoreOwner(address _storeowner) onlyAdmin() checkMarketStatus public {\n    require(approvedStoreOwners[_storeowner] == false, \"Store owner already exists\");\n        approvedStoreOwners[_storeowner] = true; \n        storeowners.push(_storeowner);\n        emit storeownerAdded(_storeowner);\n    }\n  \n    /** @dev Checks to see if given address is market admin.\n      * @param _checkaddress address that needs to be checked.\n      * @return boolean. True if it's admin, False if it's not admin.\n      */\n  function isAdmin(address _checkaddress) public view returns(bool) {\n    return(approvedAdmins[_checkaddress]);\n  }\n\n    /** @dev Checks to see if given address is market store owner.\n      * @param _checkaddress address that needs to be checked.\n      * @return boolean. True if it's store owner, False if it's not store owner.\n      */\n  function isStoreOwner(address _checkaddress) public view returns(bool) {\n    return(approvedStoreOwners[_checkaddress]);\n  }\n  \n    /** @dev Gets list of all admins.\n      * @return address[]. Array of admins.\n      */\n  function getAdmins() public view returns(address[]) {\n    return(admins);\n  }\n  \n    /** @dev Gets list of all store owners.\n      * @return address[]. Array of store owners.\n      */\n  function getStoreOwners() public view returns(address[]) {\n    return(storeowners);\n  }\n}\n\n\n",
  "sourcePath": "/home/avani/final-project-akp18/contracts/MarketAdmin.sol",
  "compiler": {
    "name": "solc",
    "version": "0.4.24+commit.e67f0147.Emscripten.clang"
  },
  "schemaVersion": "2.0.1",
  "updatedAt": "2019-01-13T02:50:37.117Z"
}