{
  "contractName": "MarketAdmin",
  "abi": [
    {
      "constant": true,
      "inputs": [
        {
          "name": "",
          "type": "uint256"
        }
      ],
      "name": "admins",
      "outputs": [
        {
          "name": "",
          "type": "address"
        }
      ],
      "payable": false,
      "stateMutability": "view",
      "type": "function"
    },
    {
      "constant": true,
      "inputs": [
        {
          "name": "",
          "type": "address"
        }
      ],
      "name": "approvedAdmins",
      "outputs": [
        {
          "name": "",
          "type": "bool"
        }
      ],
      "payable": false,
      "stateMutability": "view",
      "type": "function"
    },
    {
      "constant": true,
      "inputs": [
        {
          "name": "",
          "type": "uint256"
        }
      ],
      "name": "storeowners",
      "outputs": [
        {
          "name": "",
          "type": "address"
        }
      ],
      "payable": false,
      "stateMutability": "view",
      "type": "function"
    },
    {
      "constant": false,
      "inputs": [],
      "name": "changeMarketState",
      "outputs": [],
      "payable": false,
      "stateMutability": "nonpayable",
      "type": "function"
    },
    {
      "constant": true,
      "inputs": [],
      "name": "owner",
      "outputs": [
        {
          "name": "",
          "type": "address"
        }
      ],
      "payable": false,
      "stateMutability": "view",
      "type": "function"
    },
    {
      "constant": true,
      "inputs": [
        {
          "name": "",
          "type": "address"
        }
      ],
      "name": "approvedStoreOwners",
      "outputs": [
        {
          "name": "",
          "type": "bool"
        }
      ],
      "payable": false,
      "stateMutability": "view",
      "type": "function"
    },
    {
      "constant": false,
      "inputs": [
        {
          "name": "newOwner",
          "type": "address"
        }
      ],
      "name": "transferOwnership",
      "outputs": [],
      "payable": false,
      "stateMutability": "nonpayable",
      "type": "function"
    },
    {
      "anonymous": false,
      "inputs": [
        {
          "indexed": false,
          "name": "_admin",
          "type": "address"
        }
      ],
      "name": "adminAdded",
      "type": "event"
    },
    {
      "anonymous": false,
      "inputs": [
        {
          "indexed": false,
          "name": "_storeowner",
          "type": "address"
        }
      ],
      "name": "storeownerAdded",
      "type": "event"
    },
    {
      "anonymous": false,
      "inputs": [],
      "name": "marketStopped",
      "type": "event"
    },
    {
      "constant": true,
      "inputs": [],
      "name": "getUserType",
      "outputs": [
        {
          "name": "",
          "type": "uint8"
        }
      ],
      "payable": false,
      "stateMutability": "view",
      "type": "function"
    },
    {
      "constant": false,
      "inputs": [
        {
          "name": "_admin",
          "type": "address"
        }
      ],
      "name": "addAdmin",
      "outputs": [],
      "payable": false,
      "stateMutability": "nonpayable",
      "type": "function"
    },
    {
      "constant": false,
      "inputs": [
        {
          "name": "_storeowner",
          "type": "address"
        }
      ],
      "name": "addStoreOwner",
      "outputs": [],
      "payable": false,
      "stateMutability": "nonpayable",
      "type": "function"
    },
    {
      "constant": true,
      "inputs": [
        {
          "name": "_checkaddress",
          "type": "address"
        }
      ],
      "name": "isAdmin",
      "outputs": [
        {
          "name": "",
          "type": "bool"
        }
      ],
      "payable": false,
      "stateMutability": "view",
      "type": "function"
    },
    {
      "constant": true,
      "inputs": [
        {
          "name": "_checkaddress",
          "type": "address"
        }
      ],
      "name": "isStoreOwner",
      "outputs": [
        {
          "name": "",
          "type": "bool"
        }
      ],
      "payable": false,
      "stateMutability": "view",
      "type": "function"
    },
    {
      "constant": true,
      "inputs": [],
      "name": "getAdmins",
      "outputs": [
        {
          "name": "",
          "type": "address[]"
        }
      ],
      "payable": false,
      "stateMutability": "view",
      "type": "function"
    },
    {
      "constant": true,
      "inputs": [],
      "name": "getStoreOwners",
      "outputs": [
        {
          "name": "",
          "type": "address[]"
        }
      ],
      "payable": false,
      "stateMutability": "view",
      "type": "function"
    }
  ],
  "bytecode": "0x6080604052336000806101000a81548173ffffffffffffffffffffffffffffffffffffffff021916908373ffffffffffffffffffffffffffffffffffffffff16021790555060008060146101000a81548160ff021916908315150217905550610ec58061006d6000396000f3006080604052600436106100d0576000357c0100000000000000000000000000000000000000000000000000000000900463ffffffff16806314bfd6d0146100d557806324d7806c1461014257806331ae450b1461019d57806341990077146102095780635effd33c14610242578063704802751461029d57806371ba3327146102e05780638a6105651461033b5780638b89ba3e146103a85780638da5cb5b146103bf57806391f4245a146104165780639adeb5f114610482578063f1f304a9146104c5578063f2fde38b14610520575b600080fd5b3480156100e157600080fd5b5061010060048036038101908080359060200190929190505050610563565b604051808273ffffffffffffffffffffffffffffffffffffffff1673ffffffffffffffffffffffffffffffffffffffff16815260200191505060405180910390f35b34801561014e57600080fd5b50610183600480360381019080803573ffffffffffffffffffffffffffffffffffffffff1690602001909291905050506105a1565b604051808215151515815260200191505060405180910390f35b3480156101a957600080fd5b506101b26105f7565b6040518080602001828103825283818151815260200191508051906020019060200280838360005b838110156101f55780820151818401526020810190506101da565b505050509050019250505060405180910390f35b34801561021557600080fd5b5061021e610685565b6040518082600381111561022e57fe5b60ff16815260200191505060405180910390f35b34801561024e57600080fd5b50610283600480360381019080803573ffffffffffffffffffffffffffffffffffffffff1690602001909291905050506107a3565b604051808215151515815260200191505060405180910390f35b3480156102a957600080fd5b506102de600480360381019080803573ffffffffffffffffffffffffffffffffffffffff1690602001909291905050506107f9565b005b3480156102ec57600080fd5b50610321600480360381019080803573ffffffffffffffffffffffffffffffffffffffff1690602001909291905050506109ee565b604051808215151515815260200191505060405180910390f35b34801561034757600080fd5b5061036660048036038101908080359060200190929190505050610a0e565b604051808273ffffffffffffffffffffffffffffffffffffffff1673ffffffffffffffffffffffffffffffffffffffff16815260200191505060405180910390f35b3480156103b457600080fd5b506103bd610a4c565b005b3480156103cb57600080fd5b506103d4610aff565b604051808273ffffffffffffffffffffffffffffffffffffffff1673ffffffffffffffffffffffffffffffffffffffff16815260200191505060405180910390f35b34801561042257600080fd5b5061042b610b24565b6040518080602001828103825283818151815260200191508051906020019060200280838360005b8381101561046e578082015181840152602081019050610453565b505050509050019250505060405180910390f35b34801561048e57600080fd5b506104c3600480360381019080803573ffffffffffffffffffffffffffffffffffffffff169060200190929190505050610bb2565b005b3480156104d157600080fd5b50610506600480360381019080803573ffffffffffffffffffffffffffffffffffffffff169060200190929190505050610da4565b604051808215151515815260200191505060405180910390f35b34801561052c57600080fd5b50610561600480360381019080803573ffffffffffffffffffffffffffffffffffffffff169060200190929190505050610dc4565b005b60018181548110151561057257fe5b906000526020600020016000915054906101000a900473ffffffffffffffffffffffffffffffffffffffff1681565b6000600360008373ffffffffffffffffffffffffffffffffffffffff1673ffffffffffffffffffffffffffffffffffffffff16815260200190815260200160002060009054906101000a900460ff169050919050565b6060600180548060200260200160405190810160405280929190818152602001828054801561067b57602002820191906000526020600020905b8160009054906101000a900473ffffffffffffffffffffffffffffffffffffffff1673ffffffffffffffffffffffffffffffffffffffff1681526020019060010190808311610631575b5050505050905090565b60008060009054906101000a900473ffffffffffffffffffffffffffffffffffffffff1673ffffffffffffffffffffffffffffffffffffffff163373ffffffffffffffffffffffffffffffffffffffff1614156106e557600090506107a0565b600360003373ffffffffffffffffffffffffffffffffffffffff1673ffffffffffffffffffffffffffffffffffffffff16815260200190815260200160002060009054906101000a900460ff161561074057600190506107a0565b600460003373ffffffffffffffffffffffffffffffffffffffff1673ffffffffffffffffffffffffffffffffffffffff16815260200190815260200160002060009054906101000a900460ff161561079b57600290506107a0565b600390505b90565b6000600460008373ffffffffffffffffffffffffffffffffffffffff1673ffffffffffffffffffffffffffffffffffffffff16815260200190815260200160002060009054906101000a900460ff169050919050565b6000809054906101000a900473ffffffffffffffffffffffffffffffffffffffff1673ffffffffffffffffffffffffffffffffffffffff163373ffffffffffffffffffffffffffffffffffffffff1614151561085457600080fd5b600060149054906101000a900460ff1615156109eb5760001515600360008373ffffffffffffffffffffffffffffffffffffffff1673ffffffffffffffffffffffffffffffffffffffff16815260200190815260200160002060009054906101000a900460ff1615151415156108c957600080fd5b6001600360008373ffffffffffffffffffffffffffffffffffffffff1673ffffffffffffffffffffffffffffffffffffffff16815260200190815260200160002060006101000a81548160ff02191690831515021790555060018190806001815401808255809150509060018203906000526020600020016000909192909190916101000a81548173ffffffffffffffffffffffffffffffffffffffff021916908373ffffffffffffffffffffffffffffffffffffffff160217905550507fefcbb6030dbeda3448a657cc462d3fde6f3b78e2710bd7b2d9e2ab358a12e17081604051808273ffffffffffffffffffffffffffffffffffffffff1673ffffffffffffffffffffffffffffffffffffffff16815260200191505060405180910390a15b50565b60036020528060005260406000206000915054906101000a900460ff1681565b600281815481101515610a1d57fe5b906000526020600020016000915054906101000a900473ffffffffffffffffffffffffffffffffffffffff1681565b6000809054906101000a900473ffffffffffffffffffffffffffffffffffffffff1673ffffffffffffffffffffffffffffffffffffffff163373ffffffffffffffffffffffffffffffffffffffff16141515610aa757600080fd5b600060149054906101000a900460ff1615600060146101000a81548160ff0219169083151502179055507f394a5882381374bb37075293ea07f1f274f4278ac2ca8f37f16d535b933ca69b60405160405180910390a1565b6000809054906101000a900473ffffffffffffffffffffffffffffffffffffffff1681565b60606002805480602002602001604051908101604052809291908181526020018280548015610ba857602002820191906000526020600020905b8160009054906101000a900473ffffffffffffffffffffffffffffffffffffffff1673ffffffffffffffffffffffffffffffffffffffff1681526020019060010190808311610b5e575b5050505050905090565b600360003373ffffffffffffffffffffffffffffffffffffffff1673ffffffffffffffffffffffffffffffffffffffff16815260200190815260200160002060009054906101000a900460ff161515610c0a57600080fd5b600060149054906101000a900460ff161515610da15760001515600460008373ffffffffffffffffffffffffffffffffffffffff1673ffffffffffffffffffffffffffffffffffffffff16815260200190815260200160002060009054906101000a900460ff161515141515610c7f57600080fd5b6001600460008373ffffffffffffffffffffffffffffffffffffffff1673ffffffffffffffffffffffffffffffffffffffff16815260200190815260200160002060006101000a81548160ff02191690831515021790555060028190806001815401808255809150509060018203906000526020600020016000909192909190916101000a81548173ffffffffffffffffffffffffffffffffffffffff021916908373ffffffffffffffffffffffffffffffffffffffff160217905550507f767d71230d5cd76aaa996d05fe8523b32db03111807e02395721f76e7d4b71d481604051808273ffffffffffffffffffffffffffffffffffffffff1673ffffffffffffffffffffffffffffffffffffffff16815260200191505060405180910390a15b50565b60046020528060005260406000206000915054906101000a900460ff1681565b6000809054906101000a900473ffffffffffffffffffffffffffffffffffffffff1673ffffffffffffffffffffffffffffffffffffffff163373ffffffffffffffffffffffffffffffffffffffff16141515610e1f57600080fd5b600073ffffffffffffffffffffffffffffffffffffffff168173ffffffffffffffffffffffffffffffffffffffff16141515610e9657806000806101000a81548173ffffffffffffffffffffffffffffffffffffffff021916908373ffffffffffffffffffffffffffffffffffffffff1602179055505b505600a165627a7a7230582069da5073adba5e6b42ae568af986d88aa7147560807f0a786d1bbc3a87d5c0510029",
  "source": "pragma solidity ^0.4.24;\nimport './SafeMath.sol';\n\ncontract Ownable {\n    address public owner;\n\n    constructor() public {\n        owner = msg.sender;\n    }\n\n  /** Create a modifer that checks if the msg.sender is the owner of the contract */\n    modifier onlyOwner {\n        require(msg.sender == owner);\n        _;\n    }\n\n\n    function transferOwnership(address newOwner) onlyOwner {\n        if (newOwner != address(0)) {\n            owner = newOwner;\n        }\n    }\n}\n\ncontract Stoppable is Ownable\n{\n    bool stopMarket;\n    \n    constructor() public {\n        stopMarket = false;\n    }\n\n    event marketStopped();\n    \n    /** CIRCUIT BREAKER PATTERN: Allows owner to stop the marketplace  */\n    function changeMarketState() public onlyOwner {\n        stopMarket = !stopMarket;\n        emit marketStopped();\n    }\n    \n    /** MODIFIER to check if marketplace is active  */\n    modifier checkMarketStatus() {\n        if(!stopMarket) _;\n    }\n\n}\n\ncontract MarketAdmin is Stoppable {\n  \n  using SafeMath for uint;\n  \n  /** owner of the marketplace */\n  address[] public admins;\n  address[] public storeowners;\n  mapping (address => bool) public approvedAdmins;\n  mapping (address => bool) public approvedStoreOwners;\n  \n    /** enum USER_TYPE returns \n     * 0 for Market_Owner, \n     * 1 for Admin, \n     * 2 for Store_Owner \n     * 3 for Shopper\n     */\n    enum UserType { Market_Owner, Admin, Store_Owner, Shopper }\n    \n    /**\n     * get type of the user accessing the smart contract\n     * returns 0, 1, 2 or 3\n    */\n    function getUserType() public constant returns(UserType)\n    {\n        if(msg.sender == owner)\n            return UserType.Market_Owner;\n        if(approvedAdmins[msg.sender])\n            return UserType.Admin;\n        if(approvedStoreOwners[msg.sender])\n            return UserType.Store_Owner;\n        else\n            return UserType.Shopper;\n    }\n  \n  /** Create a modifer that checks if the msg.sender is an admin */\n  modifier onlyAdmin () { require (approvedAdmins[msg.sender]); _;}\n\n /** Create a modifer that checks if the msg.sender is an admin */\n  modifier onlyStoreOwner () { require (approvedStoreOwners[msg.sender]); _;}\n  \n  event adminAdded(address _admin);\n  event storeownerAdded(address _storeowner);\n  \n/** Market owner can add other admins for the marketplace*/\n  function addAdmin(address _admin) onlyOwner() checkMarketStatus public {\n    require(approvedAdmins[_admin] == false);\n    approvedAdmins[_admin] = true; \n    admins.push(_admin);\n    emit adminAdded(_admin);\n  }\n  \n  /** Market admin and market owner can add new store owners */\n  function addStoreOwner(address _storeowner) onlyAdmin() checkMarketStatus public {\n   require(approvedStoreOwners[_storeowner] == false);\n    approvedStoreOwners[_storeowner] = true; \n    storeowners.push(_storeowner);\n    emit storeownerAdded(_storeowner);\n  }\n  \n  /** Checks to see if given address is market admin*/\n  function isAdmin(address _checkaddress) public view returns(bool) {\n    return(approvedAdmins[_checkaddress]);\n  }\n\n  /** Checks to see if given address is market store owner*/\n  function isStoreOwner(address _checkaddress) public view returns(bool) {\n    return(approvedStoreOwners[_checkaddress]);\n  }\n  \n  /** Gets list of all store admins*/\n  function getAdmins() public view returns(address[]) {\n    return(admins);\n  }\n  \n  /** Gets list of all store owners*/\n  function getStoreOwners() public view returns(address[]) {\n    return(storeowners);\n  }\n}\n\n\n",
  "sourcePath": "/home/avani/final-project-akp18/contracts/MarketAdmin.sol",
  "compiler": {
    "name": "solc",
    "version": "0.4.24+commit.e67f0147.Emscripten.clang"
  },
  "schemaVersion": "2.0.1",
  "updatedAt": "2018-12-30T03:47:55.668Z"
}