{
  "contractName": "Stoppable",
  "abi": [
    {
      "constant": true,
      "inputs": [],
      "name": "owner",
      "outputs": [
        {
          "name": "",
          "type": "address"
        }
      ],
      "payable": false,
      "stateMutability": "view",
      "type": "function"
    },
    {
      "constant": false,
      "inputs": [
        {
          "name": "newOwner",
          "type": "address"
        }
      ],
      "name": "transferOwnership",
      "outputs": [],
      "payable": false,
      "stateMutability": "nonpayable",
      "type": "function"
    },
    {
      "inputs": [],
      "payable": false,
      "stateMutability": "nonpayable",
      "type": "constructor"
    },
    {
      "anonymous": false,
      "inputs": [],
      "name": "marketStopped",
      "type": "event"
    },
    {
      "constant": false,
      "inputs": [],
      "name": "changeMarketState",
      "outputs": [],
      "payable": false,
      "stateMutability": "nonpayable",
      "type": "function"
    }
  ],
  "bytecode": "0x608060405234801561001057600080fd5b50336000806101000a81548173ffffffffffffffffffffffffffffffffffffffff021916908373ffffffffffffffffffffffffffffffffffffffff16021790555060008060146101000a81548160ff0219169083151502179055506102e68061007a6000396000f300608060405260043610610057576000357c0100000000000000000000000000000000000000000000000000000000900463ffffffff1680638b89ba3e1461005c5780638da5cb5b14610073578063f2fde38b146100ca575b600080fd5b34801561006857600080fd5b5061007161010d565b005b34801561007f57600080fd5b506100886101c0565b604051808273ffffffffffffffffffffffffffffffffffffffff1673ffffffffffffffffffffffffffffffffffffffff16815260200191505060405180910390f35b3480156100d657600080fd5b5061010b600480360381019080803573ffffffffffffffffffffffffffffffffffffffff1690602001909291905050506101e5565b005b6000809054906101000a900473ffffffffffffffffffffffffffffffffffffffff1673ffffffffffffffffffffffffffffffffffffffff163373ffffffffffffffffffffffffffffffffffffffff1614151561016857600080fd5b600060149054906101000a900460ff1615600060146101000a81548160ff0219169083151502179055507f394a5882381374bb37075293ea07f1f274f4278ac2ca8f37f16d535b933ca69b60405160405180910390a1565b6000809054906101000a900473ffffffffffffffffffffffffffffffffffffffff1681565b6000809054906101000a900473ffffffffffffffffffffffffffffffffffffffff1673ffffffffffffffffffffffffffffffffffffffff163373ffffffffffffffffffffffffffffffffffffffff1614151561024057600080fd5b600073ffffffffffffffffffffffffffffffffffffffff168173ffffffffffffffffffffffffffffffffffffffff161415156102b757806000806101000a81548173ffffffffffffffffffffffffffffffffffffffff021916908373ffffffffffffffffffffffffffffffffffffffff1602179055505b505600a165627a7a7230582025689b522a8a78e1198623dc57a0adc86fe50a1b4a530daee3b17c33bbcd555f0029",
  "source": "pragma solidity ^0.4.24;\nimport './SafeMath.sol';\n\ncontract Ownable {\n    address public owner;\n\n    constructor() public {\n        owner = msg.sender;\n    }\n\n  /** Create a modifer that checks if the msg.sender is the owner of the contract */\n    modifier onlyOwner {\n        require(msg.sender == owner);\n        _;\n    }\n\n\n    function transferOwnership(address newOwner) onlyOwner {\n        if (newOwner != address(0)) {\n            owner = newOwner;\n        }\n    }\n}\n\ncontract Stoppable is Ownable\n{\n    bool stopMarket;\n    \n    constructor() public {\n        stopMarket = false;\n    }\n\n    event marketStopped();\n    \n    /** CIRCUIT BREAKER PATTERN: Allows owner to stop the marketplace  */\n    function changeMarketState() public onlyOwner {\n        stopMarket = !stopMarket;\n        emit marketStopped();\n    }\n    \n    /** MODIFIER to check if marketplace is active  */\n    modifier checkMarketStatus() {\n        if(!stopMarket) _;\n    }\n\n}\n\ncontract MarketAdmin is Stoppable {\n  \n  using SafeMath for uint;\n  \n  /** owner of the marketplace */\n  address[] public admins;\n  address[] public storeowners;\n  mapping (address => bool) public approvedAdmins;\n  mapping (address => bool) public approvedStoreOwners;\n  \n    /** enum USER_TYPE returns \n     * 0 for Market_Owner, \n     * 1 for Admin, \n     * 2 for Store_Owner \n     * 3 for Shopper\n     */\n    enum UserType { Market_Owner, Admin, Store_Owner, Shopper }\n    \n    /**\n     * get type of the user accessing the smart contract\n     * returns 0, 1, 2 or 3\n    */\n    function getUserType() public constant returns(UserType)\n    {\n        if(msg.sender == owner)\n            return UserType.Market_Owner;\n        if(approvedAdmins[msg.sender])\n            return UserType.Admin;\n        if(approvedStoreOwners[msg.sender])\n            return UserType.Store_Owner;\n        else\n            return UserType.Shopper;\n    }\n  \n  /** Create a modifer that checks if the msg.sender is an admin */\n  modifier onlyAdmin () { require (approvedAdmins[msg.sender]); _;}\n\n /** Create a modifer that checks if the msg.sender is an admin */\n  modifier onlyStoreOwner () { require (approvedStoreOwners[msg.sender]); _;}\n  \n  event adminAdded(address _admin);\n  event storeownerAdded(address _storeowner);\n  \n/** Market owner can add other admins for the marketplace*/\n  function addAdmin(address _admin) onlyOwner() checkMarketStatus public {\n    require(approvedAdmins[_admin] == false);\n    approvedAdmins[_admin] = true; \n    admins.push(_admin);\n    emit adminAdded(_admin);\n  }\n  \n  /** Market admin and market owner can add new store owners */\n  function addStoreOwner(address _storeowner) onlyAdmin() checkMarketStatus public {\n   require(approvedStoreOwners[_storeowner] == false);\n    approvedStoreOwners[_storeowner] = true; \n    storeowners.push(_storeowner);\n    emit storeownerAdded(_storeowner);\n  }\n  \n  /** Checks to see if given address is market admin*/\n  function isAdmin(address _checkaddress) public view returns(bool) {\n    return(approvedAdmins[_checkaddress]);\n  }\n\n  /** Checks to see if given address is market store owner*/\n  function isStoreOwner(address _checkaddress) public view returns(bool) {\n    return(approvedStoreOwners[_checkaddress]);\n  }\n  \n  /** Gets list of all store admins*/\n  function getAdmins() public view returns(address[]) {\n    return(admins);\n  }\n  \n  /** Gets list of all store owners*/\n  function getStoreOwners() public view returns(address[]) {\n    return(storeowners);\n  }\n}\n\n\n",
  "sourcePath": "/home/avani/final-project-akp18/contracts/MarketAdmin.sol",
  "compiler": {
    "name": "solc",
    "version": "0.4.24+commit.e67f0147.Emscripten.clang"
  },
  "schemaVersion": "2.0.1",
  "updatedAt": "2018-12-30T03:47:55.021Z"
}