{
  "contractName": "StoreOwner",
  "abi": [
    {
      "constant": true,
      "inputs": [
        {
          "name": "",
          "type": "uint256"
        }
      ],
      "name": "admins",
      "outputs": [
        {
          "name": "",
          "type": "address"
        }
      ],
      "payable": false,
      "stateMutability": "view",
      "type": "function"
    },
    {
      "constant": true,
      "inputs": [
        {
          "name": "",
          "type": "uint256"
        },
        {
          "name": "",
          "type": "uint256"
        }
      ],
      "name": "storetoProducts",
      "outputs": [
        {
          "name": "name",
          "type": "string"
        },
        {
          "name": "sku",
          "type": "uint256"
        },
        {
          "name": "price",
          "type": "uint256"
        },
        {
          "name": "quantity",
          "type": "uint256"
        },
        {
          "name": "isRemoved",
          "type": "bool"
        }
      ],
      "payable": false,
      "stateMutability": "view",
      "type": "function"
    },
    {
      "constant": true,
      "inputs": [
        {
          "name": "_checkaddress",
          "type": "address"
        }
      ],
      "name": "isAdmin",
      "outputs": [
        {
          "name": "",
          "type": "bool"
        }
      ],
      "payable": false,
      "stateMutability": "view",
      "type": "function"
    },
    {
      "constant": true,
      "inputs": [],
      "name": "getAdmins",
      "outputs": [
        {
          "name": "",
          "type": "address[]"
        }
      ],
      "payable": false,
      "stateMutability": "view",
      "type": "function"
    },
    {
      "constant": true,
      "inputs": [
        {
          "name": "",
          "type": "uint256"
        }
      ],
      "name": "storeOwnertoStoreFront",
      "outputs": [
        {
          "name": "storeName",
          "type": "string"
        },
        {
          "name": "storeOwner",
          "type": "address"
        },
        {
          "name": "approvedBy",
          "type": "address"
        },
        {
          "name": "skuCount",
          "type": "uint256"
        },
        {
          "name": "active",
          "type": "bool"
        }
      ],
      "payable": false,
      "stateMutability": "view",
      "type": "function"
    },
    {
      "constant": true,
      "inputs": [],
      "name": "getUserType",
      "outputs": [
        {
          "name": "",
          "type": "uint8"
        }
      ],
      "payable": false,
      "stateMutability": "view",
      "type": "function"
    },
    {
      "constant": true,
      "inputs": [
        {
          "name": "_checkaddress",
          "type": "address"
        }
      ],
      "name": "isStoreOwner",
      "outputs": [
        {
          "name": "",
          "type": "bool"
        }
      ],
      "payable": false,
      "stateMutability": "view",
      "type": "function"
    },
    {
      "constant": true,
      "inputs": [
        {
          "name": "",
          "type": "address"
        },
        {
          "name": "",
          "type": "uint256"
        }
      ],
      "name": "storeOwnertoStoreIds",
      "outputs": [
        {
          "name": "",
          "type": "uint256"
        }
      ],
      "payable": false,
      "stateMutability": "view",
      "type": "function"
    },
    {
      "constant": false,
      "inputs": [
        {
          "name": "_admin",
          "type": "address"
        }
      ],
      "name": "addAdmin",
      "outputs": [],
      "payable": false,
      "stateMutability": "nonpayable",
      "type": "function"
    },
    {
      "constant": true,
      "inputs": [
        {
          "name": "",
          "type": "address"
        }
      ],
      "name": "approvedAdmins",
      "outputs": [
        {
          "name": "",
          "type": "bool"
        }
      ],
      "payable": false,
      "stateMutability": "view",
      "type": "function"
    },
    {
      "constant": true,
      "inputs": [
        {
          "name": "",
          "type": "uint256"
        }
      ],
      "name": "storeowners",
      "outputs": [
        {
          "name": "",
          "type": "address"
        }
      ],
      "payable": false,
      "stateMutability": "view",
      "type": "function"
    },
    {
      "constant": false,
      "inputs": [],
      "name": "changeMarketState",
      "outputs": [],
      "payable": false,
      "stateMutability": "nonpayable",
      "type": "function"
    },
    {
      "constant": true,
      "inputs": [],
      "name": "owner",
      "outputs": [
        {
          "name": "",
          "type": "address"
        }
      ],
      "payable": false,
      "stateMutability": "view",
      "type": "function"
    },
    {
      "constant": true,
      "inputs": [],
      "name": "getStoreOwners",
      "outputs": [
        {
          "name": "",
          "type": "address[]"
        }
      ],
      "payable": false,
      "stateMutability": "view",
      "type": "function"
    },
    {
      "constant": false,
      "inputs": [
        {
          "name": "_storeowner",
          "type": "address"
        }
      ],
      "name": "addStoreOwner",
      "outputs": [],
      "payable": false,
      "stateMutability": "nonpayable",
      "type": "function"
    },
    {
      "constant": true,
      "inputs": [
        {
          "name": "",
          "type": "uint256"
        }
      ],
      "name": "storeIdtoStoreOwner",
      "outputs": [
        {
          "name": "",
          "type": "address"
        }
      ],
      "payable": false,
      "stateMutability": "view",
      "type": "function"
    },
    {
      "constant": true,
      "inputs": [
        {
          "name": "",
          "type": "address"
        }
      ],
      "name": "approvedStoreOwners",
      "outputs": [
        {
          "name": "",
          "type": "bool"
        }
      ],
      "payable": false,
      "stateMutability": "view",
      "type": "function"
    },
    {
      "constant": false,
      "inputs": [
        {
          "name": "newOwner",
          "type": "address"
        }
      ],
      "name": "transferOwnership",
      "outputs": [],
      "payable": false,
      "stateMutability": "nonpayable",
      "type": "function"
    },
    {
      "constant": true,
      "inputs": [
        {
          "name": "",
          "type": "address"
        },
        {
          "name": "",
          "type": "uint256"
        },
        {
          "name": "",
          "type": "uint256"
        }
      ],
      "name": "buyertoStoretoProducts",
      "outputs": [
        {
          "name": "",
          "type": "uint256"
        }
      ],
      "payable": false,
      "stateMutability": "view",
      "type": "function"
    },
    {
      "payable": true,
      "stateMutability": "payable",
      "type": "fallback"
    },
    {
      "anonymous": false,
      "inputs": [
        {
          "indexed": false,
          "name": "_storeId",
          "type": "uint256"
        },
        {
          "indexed": false,
          "name": "_storeName",
          "type": "string"
        }
      ],
      "name": "storeFrontCreated",
      "type": "event"
    },
    {
      "anonymous": false,
      "inputs": [
        {
          "indexed": false,
          "name": "_storeId",
          "type": "uint256"
        },
        {
          "indexed": false,
          "name": "_approvedBy",
          "type": "address"
        }
      ],
      "name": "storeFrontApproved",
      "type": "event"
    },
    {
      "anonymous": false,
      "inputs": [
        {
          "indexed": false,
          "name": "_storeId",
          "type": "uint256"
        },
        {
          "indexed": false,
          "name": "_sku",
          "type": "uint256"
        }
      ],
      "name": "productAdded",
      "type": "event"
    },
    {
      "anonymous": false,
      "inputs": [
        {
          "indexed": false,
          "name": "_storeId",
          "type": "uint256"
        },
        {
          "indexed": false,
          "name": "_sku",
          "type": "uint256"
        }
      ],
      "name": "productRemoved",
      "type": "event"
    },
    {
      "anonymous": false,
      "inputs": [
        {
          "indexed": false,
          "name": "_storeId",
          "type": "uint256"
        },
        {
          "indexed": false,
          "name": "_sku",
          "type": "uint256"
        }
      ],
      "name": "productUpdated",
      "type": "event"
    },
    {
      "anonymous": false,
      "inputs": [
        {
          "indexed": false,
          "name": "_storeId",
          "type": "uint256"
        },
        {
          "indexed": false,
          "name": "_sku",
          "type": "uint256"
        },
        {
          "indexed": false,
          "name": "_quantity",
          "type": "uint256"
        },
        {
          "indexed": false,
          "name": "_purchasedBy",
          "type": "address"
        }
      ],
      "name": "productPurchased",
      "type": "event"
    },
    {
      "anonymous": false,
      "inputs": [
        {
          "indexed": false,
          "name": "_amount",
          "type": "uint256"
        },
        {
          "indexed": false,
          "name": "_withdrawnBy",
          "type": "address"
        }
      ],
      "name": "amountWithdrawn",
      "type": "event"
    },
    {
      "anonymous": false,
      "inputs": [
        {
          "indexed": false,
          "name": "_admin",
          "type": "address"
        }
      ],
      "name": "adminAdded",
      "type": "event"
    },
    {
      "anonymous": false,
      "inputs": [
        {
          "indexed": false,
          "name": "_storeowner",
          "type": "address"
        }
      ],
      "name": "storeownerAdded",
      "type": "event"
    },
    {
      "anonymous": false,
      "inputs": [],
      "name": "marketStopped",
      "type": "event"
    },
    {
      "constant": false,
      "inputs": [
        {
          "name": "_storename",
          "type": "string"
        }
      ],
      "name": "createStoreFront",
      "outputs": [
        {
          "name": "_storeId",
          "type": "uint256"
        }
      ],
      "payable": false,
      "stateMutability": "nonpayable",
      "type": "function"
    },
    {
      "constant": false,
      "inputs": [
        {
          "name": "_storeId",
          "type": "uint256"
        }
      ],
      "name": "approveStoreFront",
      "outputs": [],
      "payable": false,
      "stateMutability": "nonpayable",
      "type": "function"
    },
    {
      "constant": false,
      "inputs": [
        {
          "name": "_storeId",
          "type": "uint256"
        },
        {
          "name": "_name",
          "type": "string"
        },
        {
          "name": "_price",
          "type": "uint256"
        },
        {
          "name": "_quantity",
          "type": "uint256"
        }
      ],
      "name": "addProduct",
      "outputs": [],
      "payable": false,
      "stateMutability": "nonpayable",
      "type": "function"
    },
    {
      "constant": false,
      "inputs": [
        {
          "name": "_storeId",
          "type": "uint256"
        },
        {
          "name": "_sku",
          "type": "uint256"
        },
        {
          "name": "_name",
          "type": "string"
        },
        {
          "name": "_price",
          "type": "uint256"
        },
        {
          "name": "_quantity",
          "type": "uint256"
        }
      ],
      "name": "updateProduct",
      "outputs": [
        {
          "name": "",
          "type": "bool"
        }
      ],
      "payable": false,
      "stateMutability": "nonpayable",
      "type": "function"
    },
    {
      "constant": false,
      "inputs": [
        {
          "name": "_storeId",
          "type": "uint256"
        },
        {
          "name": "_sku",
          "type": "uint256"
        }
      ],
      "name": "removeProduct",
      "outputs": [
        {
          "name": "",
          "type": "bool"
        }
      ],
      "payable": false,
      "stateMutability": "nonpayable",
      "type": "function"
    },
    {
      "constant": true,
      "inputs": [
        {
          "name": "_storeId",
          "type": "uint256"
        }
      ],
      "name": "getStoreFrontbyId",
      "outputs": [
        {
          "name": "",
          "type": "string"
        },
        {
          "name": "",
          "type": "address"
        },
        {
          "name": "",
          "type": "address"
        },
        {
          "name": "",
          "type": "bool"
        },
        {
          "name": "",
          "type": "uint256"
        }
      ],
      "payable": false,
      "stateMutability": "view",
      "type": "function"
    },
    {
      "constant": true,
      "inputs": [],
      "name": "getStoreFrontIds",
      "outputs": [
        {
          "name": "",
          "type": "uint256[]"
        }
      ],
      "payable": false,
      "stateMutability": "view",
      "type": "function"
    },
    {
      "constant": true,
      "inputs": [],
      "name": "getStoreFrontCount",
      "outputs": [
        {
          "name": "",
          "type": "uint256"
        }
      ],
      "payable": false,
      "stateMutability": "view",
      "type": "function"
    },
    {
      "constant": true,
      "inputs": [
        {
          "name": "_storeId",
          "type": "uint256"
        },
        {
          "name": "_sku",
          "type": "uint256"
        }
      ],
      "name": "getProductbysku",
      "outputs": [
        {
          "name": "",
          "type": "string"
        },
        {
          "name": "",
          "type": "uint256"
        },
        {
          "name": "",
          "type": "uint256"
        },
        {
          "name": "",
          "type": "bool"
        }
      ],
      "payable": false,
      "stateMutability": "view",
      "type": "function"
    },
    {
      "constant": true,
      "inputs": [
        {
          "name": "_storeId",
          "type": "uint256"
        }
      ],
      "name": "getProductCountbyStoreId",
      "outputs": [
        {
          "name": "",
          "type": "uint256"
        }
      ],
      "payable": false,
      "stateMutability": "view",
      "type": "function"
    },
    {
      "constant": false,
      "inputs": [
        {
          "name": "_storeId",
          "type": "uint256"
        },
        {
          "name": "_sku",
          "type": "uint256"
        }
      ],
      "name": "purchaseProduct",
      "outputs": [],
      "payable": true,
      "stateMutability": "payable",
      "type": "function"
    },
    {
      "constant": false,
      "inputs": [],
      "name": "withdraw",
      "outputs": [],
      "payable": false,
      "stateMutability": "nonpayable",
      "type": "function"
    },
    {
      "constant": true,
      "inputs": [],
      "name": "viewStoreBalance",
      "outputs": [
        {
          "name": "",
          "type": "uint256"
        }
      ],
      "payable": false,
      "stateMutability": "view",
      "type": "function"
    }
  ],
  "bytecode": "0x6080604052336000806101000a81548173ffffffffffffffffffffffffffffffffffffffff021916908373ffffffffffffffffffffffffffffffffffffffff16021790555060008060146101000a81548160ff02191690831515021790555061307f8061006d6000396000f300608060405260043610610196576000357c0100000000000000000000000000000000000000000000000000000000900463ffffffff16806314bfd6d014610198578063199a5344146102055780631e5be6df146102d557806324d7806c146103005780632fc826bd1461035b57806331ae450b146103d85780633ccfd60b146104445780633f995d611461045b57806340ac730e1461057957806341990077146105a4578063426cf220146105dd5780635287d5351461068657806359dff0f7146106d55780635effd33c1461079e5780636bd706b7146107f95780636e0456ef1461085a578063704802751461089b57806371ba3327146108de5780638a610565146109395780638b89ba3e146109a65780638d4062a2146109bd5780638da5cb5b14610adb57806391f4245a14610b325780639adeb5f114610b9e578063a044042614610be1578063c27ed2a214610c0b578063cb34223614610c92578063e978978714610cfe578063ef35f34914610d6b578063f1f304a914610d98578063f2fde38b14610df3578063f61d712f14610e36575b005b3480156101a457600080fd5b506101c360048036038101908080359060200190929190505050610ea1565b604051808273ffffffffffffffffffffffffffffffffffffffff1673ffffffffffffffffffffffffffffffffffffffff16815260200191505060405180910390f35b34801561021157600080fd5b5061023a6004803603810190808035906020019092919080359060200190929190505050610edf565b604051808060200186815260200185815260200184815260200183151515158152602001828103825287818151815260200191508051906020019080838360005b8381101561029657808201518184015260208101905061027b565b50505050905090810190601f1680156102c35780820380516001836020036101000a031916815260200191505b50965050505050505060405180910390f35b3480156102e157600080fd5b506102ea610fd6565b6040518082815260200191505060405180910390f35b34801561030c57600080fd5b50610341600480360381019080803573ffffffffffffffffffffffffffffffffffffffff169060200190929190505050610fe0565b604051808215151515815260200191505060405180910390f35b34801561036757600080fd5b506103c2600480360381019080803590602001908201803590602001908080601f0160208091040260200160405190810160405280939291908181526020018383808284378201915050505050509192919290505050611036565b6040518082815260200191505060405180910390f35b3480156103e457600080fd5b506103ed61115b565b6040518080602001828103825283818151815260200191508051906020019060200280838360005b83811015610430578082015181840152602081019050610415565b505050509050019250505060405180910390f35b34801561045057600080fd5b506104596111e9565b005b34801561046757600080fd5b5061048660048036038101908080359060200190929190505050611327565b60405180806020018673ffffffffffffffffffffffffffffffffffffffff1673ffffffffffffffffffffffffffffffffffffffff1681526020018573ffffffffffffffffffffffffffffffffffffffff1673ffffffffffffffffffffffffffffffffffffffff16815260200184815260200183151515158152602001828103825287818151815260200191508051906020019080838360005b8381101561053a57808201518184015260208101905061051f565b50505050905090810190601f1680156105675780820380516001836020036101000a031916815260200191505b50965050505050505060405180910390f35b34801561058557600080fd5b5061058e611442565b6040518082815260200191505060405180910390f35b3480156105b057600080fd5b506105b96114e1565b604051808260038111156105c957fe5b60ff16815260200191505060405180910390f35b3480156105e957600080fd5b5061066c6004803603810190808035906020019092919080359060200190929190803590602001908201803590602001908080601f016020809104026020016040519081016040528093929190818152602001838380828437820191505050505050919291929080359060200190929190803590602001909291905050506115ff565b604051808215151515815260200191505060405180910390f35b34801561069257600080fd5b506106bb6004803603810190808035906020019092919080359060200190929190505050611785565b604051808215151515815260200191505060405180910390f35b3480156106e157600080fd5b5061070a60048036038101908080359060200190929190803590602001909291905050506118a0565b604051808060200185815260200184815260200183151515158152602001828103825286818151815260200191508051906020019080838360005b83811015610760578082015181840152602081019050610745565b50505050905090810190601f16801561078d5780820380516001836020036101000a031916815260200191505b509550505050505060405180910390f35b3480156107aa57600080fd5b506107df600480360381019080803573ffffffffffffffffffffffffffffffffffffffff169060200190929190505050611a28565b604051808215151515815260200191505060405180910390f35b34801561080557600080fd5b50610844600480360381019080803573ffffffffffffffffffffffffffffffffffffffff16906020019092919080359060200190929190505050611a7e565b6040518082815260200191505060405180910390f35b34801561086657600080fd5b5061088560048036038101908080359060200190929190505050611aae565b6040518082815260200191505060405180910390f35b3480156108a757600080fd5b506108dc600480360381019080803573ffffffffffffffffffffffffffffffffffffffff169060200190929190505050611ace565b005b3480156108ea57600080fd5b5061091f600480360381019080803573ffffffffffffffffffffffffffffffffffffffff169060200190929190505050611cc3565b604051808215151515815260200191505060405180910390f35b34801561094557600080fd5b5061096460048036038101908080359060200190929190505050611ce3565b604051808273ffffffffffffffffffffffffffffffffffffffff1673ffffffffffffffffffffffffffffffffffffffff16815260200191505060405180910390f35b3480156109b257600080fd5b506109bb611d21565b005b3480156109c957600080fd5b506109e860048036038101908080359060200190929190505050611dd4565b60405180806020018673ffffffffffffffffffffffffffffffffffffffff1673ffffffffffffffffffffffffffffffffffffffff1681526020018573ffffffffffffffffffffffffffffffffffffffff1673ffffffffffffffffffffffffffffffffffffffff16815260200184151515158152602001838152602001828103825287818151815260200191508051906020019080838360005b83811015610a9c578082015181840152602081019050610a81565b50505050905090810190601f168015610ac95780820380516001836020036101000a031916815260200191505b50965050505050505060405180910390f35b348015610ae757600080fd5b50610af0611f4a565b604051808273ffffffffffffffffffffffffffffffffffffffff1673ffffffffffffffffffffffffffffffffffffffff16815260200191505060405180910390f35b348015610b3e57600080fd5b50610b47611f6f565b6040518080602001828103825283818151815260200191508051906020019060200280838360005b83811015610b8a578082015181840152602081019050610b6f565b505050509050019250505060405180910390f35b348015610baa57600080fd5b50610bdf600480360381019080803573ffffffffffffffffffffffffffffffffffffffff169060200190929190505050611ffd565b005b610c0960048036038101908080359060200190929190803590602001909291905050506121ef565b005b348015610c1757600080fd5b50610c9060048036038101908080359060200190929190803590602001908201803590602001908080601f016020809104026020016040519081016040528093929190818152602001838380828437820191505050505050919291929080359060200190929190803590602001909291905050506126dc565b005b348015610c9e57600080fd5b50610ca76128e5565b6040518080602001828103825283818151815260200191508051906020019060200280838360005b83811015610cea578082015181840152602081019050610ccf565b505050509050019250505060405180910390f35b348015610d0a57600080fd5b50610d296004803603810190808035906020019092919050505061297a565b604051808273ffffffffffffffffffffffffffffffffffffffff1673ffffffffffffffffffffffffffffffffffffffff16815260200191505060405180910390f35b348015610d7757600080fd5b50610d96600480360381019080803590602001909291905050506129ad565b005b348015610da457600080fd5b50610dd9600480360381019080803573ffffffffffffffffffffffffffffffffffffffff169060200190929190505050612aca565b604051808215151515815260200191505060405180910390f35b348015610dff57600080fd5b50610e34600480360381019080803573ffffffffffffffffffffffffffffffffffffffff169060200190929190505050612aea565b005b348015610e4257600080fd5b50610e8b600480360381019080803573ffffffffffffffffffffffffffffffffffffffff1690602001909291908035906020019092919080359060200190929190505050612bbf565b6040518082815260200191505060405180910390f35b600181815481101515610eb057fe5b906000526020600020016000915054906101000a900473ffffffffffffffffffffffffffffffffffffffff1681565b600860205281600052604060002081815481101515610efa57fe5b906000526020600020906005020160009150915050806000018054600181600116156101000203166002900480601f016020809104026020016040519081016040528092919081815260200182805460018160011615610100020316600290048015610fa75780601f10610f7c57610100808354040283529160200191610fa7565b820191906000526020600020905b815481529060010190602001808311610f8a57829003601f168201915b5050505050908060010154908060020154908060030154908060040160009054906101000a900460ff16905085565b6000600554905090565b6000600360008373ffffffffffffffffffffffffffffffffffffffff1673ffffffffffffffffffffffffffffffffffffffff16815260200190815260200160002060009054906101000a900460ff169050919050565b6000600460003373ffffffffffffffffffffffffffffffffffffffff1673ffffffffffffffffffffffffffffffffffffffff16815260200190815260200160002060009054906101000a900460ff16151561109057600080fd5b600060149054906101000a900460ff161515611156576110af82612bfc565b90507fcf6d0b515181e9605a474f4a524053b950bee7bbbf85928a6c95b5476aba6cf581836040518083815260200180602001828103825283818151815260200191508051906020019080838360005b8381101561111a5780820151818401526020810190506110ff565b50505050905090810190601f1680156111475780820380516001836020036101000a031916815260200191505b50935050505060405180910390a15b919050565b606060018054806020026020016040519081016040528092919081815260200182805480156111df57602002820191906000526020600020905b8160009054906101000a900473ffffffffffffffffffffffffffffffffffffffff1673ffffffffffffffffffffffffffffffffffffffff1681526020019060010190808311611195575b5050505050905090565b6000600a60003373ffffffffffffffffffffffffffffffffffffffff1673ffffffffffffffffffffffffffffffffffffffff1681526020019081526020016000205490506000600a60003373ffffffffffffffffffffffffffffffffffffffff1673ffffffffffffffffffffffffffffffffffffffff168152602001908152602001600020819055503373ffffffffffffffffffffffffffffffffffffffff166108fc829081150290604051600060405180830381858888f193505050501580156112b8573d6000803e3d6000fd5b507f1183b9976ba7e66a8755695e89a7a606aa934ab60f33d59a5ed8edf53ac8abe98133604051808381526020018273ffffffffffffffffffffffffffffffffffffffff1673ffffffffffffffffffffffffffffffffffffffff1681526020019250505060405180910390a150565b6009602052806000526040600020600091509050806000018054600181600116156101000203166002900480601f0160208091040260200160405190810160405280929190818152602001828054600181600116156101000203166002900480156113d35780601f106113a8576101008083540402835291602001916113d3565b820191906000526020600020905b8154815290600101906020018083116113b657829003601f168201915b5050505050908060010160009054906101000a900473ffffffffffffffffffffffffffffffffffffffff16908060020160009054906101000a900473ffffffffffffffffffffffffffffffffffffffff16908060030154908060040160009054906101000a900460ff16905085565b6000600460003373ffffffffffffffffffffffffffffffffffffffff1673ffffffffffffffffffffffffffffffffffffffff16815260200190815260200160002060009054906101000a900460ff16151561149c57600080fd5b600a60003373ffffffffffffffffffffffffffffffffffffffff1673ffffffffffffffffffffffffffffffffffffffff16815260200190815260200160002054905090565b60008060009054906101000a900473ffffffffffffffffffffffffffffffffffffffff1673ffffffffffffffffffffffffffffffffffffffff163373ffffffffffffffffffffffffffffffffffffffff16141561154157600090506115fc565b600360003373ffffffffffffffffffffffffffffffffffffffff1673ffffffffffffffffffffffffffffffffffffffff16815260200190815260200160002060009054906101000a900460ff161561159c57600190506115fc565b600460003373ffffffffffffffffffffffffffffffffffffffff1673ffffffffffffffffffffffffffffffffffffffff16815260200190815260200160002060009054906101000a900460ff16156115f757600290506115fc565b600390505b90565b6000853373ffffffffffffffffffffffffffffffffffffffff166007600083815260200190815260200160002060009054906101000a900473ffffffffffffffffffffffffffffffffffffffff1673ffffffffffffffffffffffffffffffffffffffff1614151561166f57600080fd5b600060149054906101000a900460ff16151561177b578460086000898152602001908152602001600020878154811015156116a657fe5b906000526020600020906005020160000190805190602001906116ca929190612f2e565b508360086000898152602001908152602001600020878154811015156116ec57fe5b90600052602060002090600502016002018190555082600860008981526020019081526020016000208781548110151561172257fe5b9060005260206000209060050201600301819055507ff3d8708fa57778bc01b407b99454d0ac2b87858475ab5b69569d03c8f9159fcd8787604051808381526020018281526020019250505060405180910390a1600191505b5095945050505050565b6000823373ffffffffffffffffffffffffffffffffffffffff166007600083815260200190815260200160002060009054906101000a900473ffffffffffffffffffffffffffffffffffffffff1673ffffffffffffffffffffffffffffffffffffffff161415156117f557600080fd5b600060149054906101000a900460ff161515611899576001600860008681526020019081526020016000208481548110151561182d57fe5b906000526020600020906005020160040160006101000a81548160ff0219169083151502179055507fee5c25bc05965731664c56badbcca59a6253500c527c65804cd0767ae581b92b8484604051808381526020018281526020019250505060405180910390a1600191505b5092915050565b6060600080600060086000878152602001908152602001600020858154811015156118c757fe5b906000526020600020906005020160000160086000888152602001908152602001600020868154811015156118f857fe5b906000526020600020906005020160020154600860008981526020019081526020016000208781548110151561192a57fe5b906000526020600020906005020160030154600860008a81526020019081526020016000208881548110151561195c57fe5b906000526020600020906005020160040160009054906101000a900460ff16838054600181600116156101000203166002900480601f016020809104026020016040519081016040528092919081815260200182805460018160011615610100020316600290048015611a105780601f106119e557610100808354040283529160200191611a10565b820191906000526020600020905b8154815290600101906020018083116119f357829003601f168201915b50505050509350935093509350935092959194509250565b6000600460008373ffffffffffffffffffffffffffffffffffffffff1673ffffffffffffffffffffffffffffffffffffffff16815260200190815260200160002060009054906101000a900460ff169050919050565b600660205281600052604060002081815481101515611a9957fe5b90600052602060002001600091509150505481565b600060096000838152602001908152602001600020600301549050919050565b6000809054906101000a900473ffffffffffffffffffffffffffffffffffffffff1673ffffffffffffffffffffffffffffffffffffffff163373ffffffffffffffffffffffffffffffffffffffff16141515611b2957600080fd5b600060149054906101000a900460ff161515611cc05760001515600360008373ffffffffffffffffffffffffffffffffffffffff1673ffffffffffffffffffffffffffffffffffffffff16815260200190815260200160002060009054906101000a900460ff161515141515611b9e57600080fd5b6001600360008373ffffffffffffffffffffffffffffffffffffffff1673ffffffffffffffffffffffffffffffffffffffff16815260200190815260200160002060006101000a81548160ff02191690831515021790555060018190806001815401808255809150509060018203906000526020600020016000909192909190916101000a81548173ffffffffffffffffffffffffffffffffffffffff021916908373ffffffffffffffffffffffffffffffffffffffff160217905550507fefcbb6030dbeda3448a657cc462d3fde6f3b78e2710bd7b2d9e2ab358a12e17081604051808273ffffffffffffffffffffffffffffffffffffffff1673ffffffffffffffffffffffffffffffffffffffff16815260200191505060405180910390a15b50565b60036020528060005260406000206000915054906101000a900460ff1681565b600281815481101515611cf257fe5b906000526020600020016000915054906101000a900473ffffffffffffffffffffffffffffffffffffffff1681565b6000809054906101000a900473ffffffffffffffffffffffffffffffffffffffff1673ffffffffffffffffffffffffffffffffffffffff163373ffffffffffffffffffffffffffffffffffffffff16141515611d7c57600080fd5b600060149054906101000a900460ff1615600060146101000a81548160ff0219169083151502179055507f394a5882381374bb37075293ea07f1f274f4278ac2ca8f37f16d535b933ca69b60405160405180910390a1565b6060600080600080600960008781526020019081526020016000206000016009600088815260200190815260200160002060010160009054906101000a900473ffffffffffffffffffffffffffffffffffffffff166009600089815260200190815260200160002060020160009054906101000a900473ffffffffffffffffffffffffffffffffffffffff16600960008a815260200190815260200160002060040160009054906101000a900460ff16600960008b815260200190815260200160002060030154848054600181600116156101000203166002900480601f016020809104026020016040519081016040528092919081815260200182805460018160011615610100020316600290048015611f305780601f10611f0557610100808354040283529160200191611f30565b820191906000526020600020905b815481529060010190602001808311611f1357829003601f168201915b505050505094509450945094509450945091939590929450565b6000809054906101000a900473ffffffffffffffffffffffffffffffffffffffff1681565b60606002805480602002602001604051908101604052809291908181526020018280548015611ff357602002820191906000526020600020905b8160009054906101000a900473ffffffffffffffffffffffffffffffffffffffff1673ffffffffffffffffffffffffffffffffffffffff1681526020019060010190808311611fa9575b5050505050905090565b600360003373ffffffffffffffffffffffffffffffffffffffff1673ffffffffffffffffffffffffffffffffffffffff16815260200190815260200160002060009054906101000a900460ff16151561205557600080fd5b600060149054906101000a900460ff1615156121ec5760001515600460008373ffffffffffffffffffffffffffffffffffffffff1673ffffffffffffffffffffffffffffffffffffffff16815260200190815260200160002060009054906101000a900460ff1615151415156120ca57600080fd5b6001600460008373ffffffffffffffffffffffffffffffffffffffff1673ffffffffffffffffffffffffffffffffffffffff16815260200190815260200160002060006101000a81548160ff02191690831515021790555060028190806001815401808255809150509060018203906000526020600020016000909192909190916101000a81548173ffffffffffffffffffffffffffffffffffffffff021916908373ffffffffffffffffffffffffffffffffffffffff160217905550507f767d71230d5cd76aaa996d05fe8523b32db03111807e02395721f76e7d4b71d481604051808273ffffffffffffffffffffffffffffffffffffffff1673ffffffffffffffffffffffffffffffffffffffff16815260200191505060405180910390a15b50565b600060149054906101000a900460ff1615156126d8576007600083815260200190815260200160002060009054906101000a900473ffffffffffffffffffffffffffffffffffffffff1673ffffffffffffffffffffffffffffffffffffffff163373ffffffffffffffffffffffffffffffffffffffff16141515156122dc576040517f08c379a00000000000000000000000000000000000000000000000000000000081526004018080602001828103825260208152602001807f596f752063616e6e6f742062757920796f7572206f776e2070726f647563742e81525060200191505060405180910390fd5b60086000838152602001908152602001600020818154811015156122fc57fe5b906000526020600020906005020160020154341415156123aa576040517f08c379a000000000000000000000000000000000000000000000000000000000815260040180806020018281038252602e8152602001807f56616c7565207472616e73666572726564206973206c657373207468616e207481526020017f6865206974656d2070726963652e00000000000000000000000000000000000081525060400191505060405180910390fd5b600060086000848152602001908152602001600020828154811015156123cc57fe5b906000526020600020906005020160030154111515612453576040517f08c379a00000000000000000000000000000000000000000000000000000000081526004018080602001828103825260168152602001807f54686973206974656d20697320736f6c64206f75742e0000000000000000000081525060200191505060405180910390fd5b600b60003373ffffffffffffffffffffffffffffffffffffffff1673ffffffffffffffffffffffffffffffffffffffff168152602001908152602001600020600083815260200190815260200160002081908060018154018082558091505090600182039060005260206000200160009091929091909150555060086000838152602001908152602001600020818154811015156124ed57fe5b906000526020600020906005020160020154600a60006007600086815260200190815260200160002060009054906101000a900473ffffffffffffffffffffffffffffffffffffffff1673ffffffffffffffffffffffffffffffffffffffff1673ffffffffffffffffffffffffffffffffffffffff1681526020019081526020016000205401600a60006007600086815260200190815260200160002060009054906101000a900473ffffffffffffffffffffffffffffffffffffffff1673ffffffffffffffffffffffffffffffffffffffff1673ffffffffffffffffffffffffffffffffffffffff16815260200190815260200160002081905550600860008381526020019081526020016000208181548110151561260957fe5b906000526020600020906005020160030160008154809291906001900391905055507f324053f20c3456e1c74e05e0171fc80eff371fe7eb33719a81ecded399e31e348282600860008681526020019081526020016000208481548110151561266e57fe5b90600052602060002090600502016003015433604051808581526020018481526020018381526020018273ffffffffffffffffffffffffffffffffffffffff1673ffffffffffffffffffffffffffffffffffffffff16815260200194505050505060405180910390a15b5050565b6000843373ffffffffffffffffffffffffffffffffffffffff166007600083815260200190815260200160002060009054906101000a900473ffffffffffffffffffffffffffffffffffffffff1673ffffffffffffffffffffffffffffffffffffffff1614151561274c57600080fd5b600060149054906101000a900460ff1615156128dd57600115156009600088815260200190815260200160002060040160009054906101000a900460ff16151514151561279857600080fd5b600960008781526020019081526020016000206003015491506008600087815260200190815260200160002060a06040519081016040528087815260200184815260200186815260200185815260200160001515815250908060018154018082558091505090600182039060005260206000209060050201600090919290919091506000820151816000019080519060200190612836929190612fae565b5060208201518160010155604082015181600201556060820151816003015560808201518160040160006101000a81548160ff021916908315150217905550505050600160096000888152602001908152602001600020600301600082825401925050819055507f7e03e0c5d441d37d2f5dbe4443b8b1dd6613d7b06a275e6c957bddfb06b35d5e8683604051808381526020018281526020019250505060405180910390a15b505050505050565b6060600660003373ffffffffffffffffffffffffffffffffffffffff1673ffffffffffffffffffffffffffffffffffffffff16815260200190815260200160002080548060200260200160405190810160405280929190818152602001828054801561297057602002820191906000526020600020905b81548152602001906001019080831161295c575b5050505050905090565b60076020528060005260406000206000915054906101000a900473ffffffffffffffffffffffffffffffffffffffff1681565b600060149054906101000a900460ff161515612ac7576129cc33610fe0565b15156129d757600080fd5b336009600083815260200190815260200160002060020160006101000a81548173ffffffffffffffffffffffffffffffffffffffff021916908373ffffffffffffffffffffffffffffffffffffffff16021790555060016009600083815260200190815260200160002060040160006101000a81548160ff0219169083151502179055507f9f83727d978b1193e2ac81836315bf23a536181b5bddbcbf39f987dbf2b1fee08133604051808381526020018273ffffffffffffffffffffffffffffffffffffffff1673ffffffffffffffffffffffffffffffffffffffff1681526020019250505060405180910390a15b50565b60046020528060005260406000206000915054906101000a900460ff1681565b6000809054906101000a900473ffffffffffffffffffffffffffffffffffffffff1673ffffffffffffffffffffffffffffffffffffffff163373ffffffffffffffffffffffffffffffffffffffff16141515612b4557600080fd5b600073ffffffffffffffffffffffffffffffffffffffff168173ffffffffffffffffffffffffffffffffffffffff16141515612bbc57806000806101000a81548173ffffffffffffffffffffffffffffffffffffffff021916908373ffffffffffffffffffffffffffffffffffffffff1602179055505b50565b600b60205282600052604060002060205281600052604060002081815481101515612be657fe5b9060005260206000200160009250925050505481565b600073__HelperLibrary_________________________63ed1a54db836040518263ffffffff167c01000000000000000000000000000000000000000000000000000000000281526004018080602001828103825283818151815260200191508051906020019080838360005b83811015612c84578082015181840152602081019050612c69565b50505050905090810190601f168015612cb15780820380516001836020036101000a031916815260200191505b509250505060206040518083038186803b158015612cce57600080fd5b505af4158015612ce2573d6000803e3d6000fd5b505050506040513d6020811015612cf857600080fd5b810190808051906020019092919050505015612d1357612f29565b600554905060a0604051908101604052808381526020013373ffffffffffffffffffffffffffffffffffffffff168152602001600073ffffffffffffffffffffffffffffffffffffffff1681526020016000815260200160001515815250600960008381526020019081526020016000206000820151816000019080519060200190612da0929190612fae565b5060208201518160010160006101000a81548173ffffffffffffffffffffffffffffffffffffffff021916908373ffffffffffffffffffffffffffffffffffffffff16021790555060408201518160020160006101000a81548173ffffffffffffffffffffffffffffffffffffffff021916908373ffffffffffffffffffffffffffffffffffffffff1602179055506060820151816003015560808201518160040160006101000a81548160ff021916908315150217905550905050336007600083815260200190815260200160002060006101000a81548173ffffffffffffffffffffffffffffffffffffffff021916908373ffffffffffffffffffffffffffffffffffffffff160217905550600660003373ffffffffffffffffffffffffffffffffffffffff1673ffffffffffffffffffffffffffffffffffffffff16815260200190815260200160002081908060018154018082558091505090600182039060005260206000200160009091929091909150555060016005600082825401925050819055505b919050565b828054600181600116156101000203166002900490600052602060002090601f016020900481019282601f10612f6f57805160ff1916838001178555612f9d565b82800160010185558215612f9d579182015b82811115612f9c578251825591602001919060010190612f81565b5b509050612faa919061302e565b5090565b828054600181600116156101000203166002900490600052602060002090601f016020900481019282601f10612fef57805160ff191683800117855561301d565b8280016001018555821561301d579182015b8281111561301c578251825591602001919060010190613001565b5b50905061302a919061302e565b5090565b61305091905b8082111561304c576000816000905550600101613034565b5090565b905600a165627a7a723058203f2b11edc73714b0ca620753c50acb94026d4f81280feaa179672219bb1d34d60029",
  "source": "pragma solidity ^0.4.24;\n\nimport \"./MarketAdmin.sol\";\nimport { HelperLibrary } from \"./HelperLibrary.sol\";\n\ncontract StoreOwner is MarketAdmin {\n\n  uint storeFrontCount;\n  mapping(address => uint[]) public storeOwnertoStoreIds;\n  mapping(uint => address) public storeIdtoStoreOwner;\n  mapping(uint => Product[]) public storetoProducts;\n  mapping(uint => StoreFront) public storeOwnertoStoreFront;\n  mapping (address => uint) pendingWithdrawals;\n  mapping(address => mapping(uint => uint[])) public buyertoStoretoProducts;\n  \n  /**\n    Event for new store creation \n   **/\n  event storeFrontCreated(uint _storeId, string _storeName);\n  \n   /**\n    Event for when a store front gets approval\n   **/\n  event storeFrontApproved(uint _storeId, address _approvedBy);\n  \n   /**\n    Event for when a new product gets added to a store\n   **/\n  event productAdded(uint _storeId, uint _sku);\n  \n   /**\n    Event for when a product is removed from a store\n   **/\n  event productRemoved(uint _storeId,uint _sku);\n  \n   /**\n    Event for when a product gets updated from a StoreFront\n   **/\n  event productUpdated(uint _storeId,uint _sku);\n  \n   /**\n    Event for when a product is purchased by someone\n   **/\n  event productPurchased(uint _storeId, uint _sku, uint _quantity, address _purchasedBy);\n  \n   /**\n    Event for when pending balance is wwithdrawn by the store owner \n   **/\n  event amountWithdrawn(uint _amount, address _withdrawnBy);\n  \n   /**\n    Struct for capturing store fronmt information\n   **/  \n  struct StoreFront\n  {\n      string storeName;\n      address storeOwner;\n      address approvedBy;\n      uint skuCount;\n      bool active;\n  }\n\n   /**\n    Struct for capturing product information\n   **/  \n  struct Product\n  {\n    string name;\n    uint sku;\n    uint price;\n    uint quantity;\n    bool isRemoved;\n  }  \n  \n  modifier verifyStoreOwner (uint _storeId) { require(storeIdtoStoreOwner[_storeId] == msg.sender); _;}\n  \n  function createStoreFront(string _storename) onlyStoreOwner() checkMarketStatus public returns (uint _storeId) \n  {\n        _storeId = addStoreFront(_storename);\n        emit storeFrontCreated(_storeId, _storename);\n  }\n  \n  /** Storer owner can add new store fronts*/\n  function addStoreFront(string _storename) internal returns (uint _storeId)\n  {\n      if(HelperLibrary.IsEmptyString(_storename)) {\n            return;\n        }\n        _storeId =  storeFrontCount;\n        storeOwnertoStoreFront[_storeId] = StoreFront({storeName: _storename, storeOwner: msg.sender, approvedBy: 0, skuCount: 0, active: false});\n        storeIdtoStoreOwner[_storeId] = msg.sender;\n        storeOwnertoStoreIds[msg.sender].push(_storeId);\n        storeFrontCount += 1;\n  }\n  \n  function approveStoreFront(uint _storeId) checkMarketStatus public\n  {\n      require(super.isAdmin(msg.sender));\n      storeOwnertoStoreFront[_storeId].approvedBy = msg.sender;\n      storeOwnertoStoreFront[_storeId].active = true;\n      emit storeFrontApproved(_storeId, msg.sender);\n  }\n  \n  function addProduct(uint _storeId,string _name, uint _price,uint _quantity) verifyStoreOwner(_storeId) checkMarketStatus public \n  {\n    require(storeOwnertoStoreFront[_storeId].active == true);\n    //get next available sku\n    uint _sku = storeOwnertoStoreFront[_storeId].skuCount;\n\n    //add the new prooduct\n    //storetoProducts[_storeId][_sku] = Product({name: _name, sku: _sku, price: _price, quantity: _quantity,isRemoved: false});\n    storetoProducts[_storeId].push(Product( _name,  _sku,  _price,  _quantity, false));\n    storeOwnertoStoreFront[_storeId].skuCount += 1;\n    emit productAdded(_storeId, _sku);\n  }\n  \n  function updateProduct(uint _storeId,uint _sku,string _name, uint _price,uint _quantity) verifyStoreOwner(_storeId) checkMarketStatus public returns(bool)\n  {\n    storetoProducts[_storeId][_sku].name = _name;\n    storetoProducts[_storeId][_sku].price = _price;\n    storetoProducts[_storeId][_sku].quantity = _quantity;\n    emit productUpdated(_storeId, _sku);\n    return true;\n  }\n  \n  function removeProduct(uint _storeId,uint _sku) verifyStoreOwner(_storeId) checkMarketStatus public returns(bool)\n  {\n    storetoProducts[_storeId][_sku].isRemoved = true;\n    emit productRemoved(_storeId, _sku);\n    return true;\n  }\n\n  function getStoreFrontbyId(uint _storeId) view public returns (string, address,address, bool, uint) {\n      return (storeOwnertoStoreFront[_storeId].storeName, \n      storeOwnertoStoreFront[_storeId].storeOwner, \n      storeOwnertoStoreFront[_storeId].approvedBy, \n      storeOwnertoStoreFront[_storeId].active,\n      storeOwnertoStoreFront[_storeId].skuCount);\n  }\n  \n  function getStoreFrontIds() view public returns (uint[]) {\n      return (storeOwnertoStoreIds[msg.sender]);\n  }\n  \n  function getStoreFrontCount() view public returns (uint) {\n      return storeFrontCount;\n  }\n  \n  function getProductbysku(uint _storeId, uint _sku) view public returns (string ,uint,uint, bool)\n  {\n    return(storetoProducts[_storeId][_sku].name,\n            storetoProducts[_storeId][_sku].price,\n            storetoProducts[_storeId][_sku].quantity,\n            storetoProducts[_storeId][_sku].isRemoved);\n  }\n\n  function getProductCountbyStoreId(uint _storeId ) view public returns (uint)\n  {\n    return(storeOwnertoStoreFront[_storeId].skuCount);\n  }\n  \n  function purchaseProduct(uint _storeId,uint _sku) public checkMarketStatus payable\n  {\n    require(msg.sender != storeIdtoStoreOwner[_storeId], \"You cannot buy your own product.\");\n    require(msg.value == storetoProducts[_storeId][_sku].price, \"Value transferred is less than the item price.\");\n    require(storetoProducts[_storeId][_sku].quantity > 0, \"This item is sold out.\");\n    \n    //keep track of who purchased which item and from which store\n    buyertoStoretoProducts[msg.sender][_storeId].push(_sku);\n   \n    //add balance to withdraw later\n    pendingWithdrawals[storeIdtoStoreOwner[_storeId]] = pendingWithdrawals[storeIdtoStoreOwner[_storeId]] + storetoProducts[_storeId][_sku].price;\n    storetoProducts[_storeId][_sku].quantity--; \n    emit productPurchased(_storeId, _sku, storetoProducts[_storeId][_sku].quantity,msg.sender);\n\n  }\n  \n  function withdraw() public {\n        uint amount = pendingWithdrawals[msg.sender];\n        // preventing re-entrancy attacks\n        pendingWithdrawals[msg.sender] = 0;\n        msg.sender.transfer(amount);\n       emit amountWithdrawn(amount, msg.sender);\n  }\n  \n  function viewStoreBalance() onlyStoreOwner() view public returns(uint)\n  {\n      return pendingWithdrawals[msg.sender];\n  }\n  \n  /**  fallback function.\n  */\n  function() external payable {\n\n  }\n}\n",
  "sourcePath": "/home/avani/final-project-akp18/contracts/StoreOwner.sol",
  "compiler": {
    "name": "solc",
    "version": "0.4.24+commit.e67f0147.Emscripten.clang"
  },
  "schemaVersion": "2.0.1",
  "updatedAt": "2018-12-30T03:47:55.676Z"
}